:020000040002F8
:1060000080680020C1630200C9630200CB63020004
:10601000CD630200CF630200D163020000000000E4
:10602000000000000000000000000000D363020038
:10603000D563020000000000D7630200D9630200AC
:1060400049660200DB6302000D6A0200DB630200A6
:10605000DB630200DB6302008D650200DB6302008C
:10606000DB630200F5690200DB630200DB63020010
:10607000DB630200DB630200DB630200DB63020020
:10608000DB6302009D660200DB630200DB6302004B
:10609000DB630200DB63020055670200DB63020082
:1060A000DB630200DB630200DB630200DB630200F0
:1060B000DB630200DB630200000000000000000060
:1060C000DB630200DB630200DB630200DB630200D0
:1060D000B5660200DB630200DB6302000000000023
:1060E00000000000000000000000000000000000B0
:1060F00000000000000000000000000000000000A0
:10610000000000000000000000000000000000008F
:10611000000000000000000000000000000000007F
:10612000000000000000000000000000000000006F
:10613000000000000000000000000000000000005F
:10614000000000000000000000000000000000004F
:10615000000000000000000000000000000000003F
:10616000000000000000000000000000000000002F
:10617000000000000000000000000000000000001F
:10618000000000000000000000000000000000000F
:1061900000000000000000000000000000000000FF
:1061A00000000000000000000000000000000000EF
:1061B00000000000000000000000000000000000DF
:1061C00000000000000000000000000000000000CF
:1061D00000000000000000000000000000000000BF
:1061E00000000000000000000000000000000000AF
:1061F000000000000000000000000000000000009F
:10620000DFF80CD000F084F9004800471DC90200F7
:106210008068002030B450E8012F93B2C489234431
:106220008489A34228BF1B1B0489A34202BFBFF37A
:106230002F8F002007E0C3EA020340E80134002C5E
:10624000E9D14FF001000A6030BC704750E8012FDF
:10625000C2EA024240E801210029F7D1704730B478
:1062600050E8022F1FFAA2F3C488A34202BFBFF373
:106270002F8F00200DE0C48923448489A34228BFC6
:106280001B1BC2EA034340E80234002CE8D14FF064
:1062900001000A6030BC704750E8022FC2EA224277
:1062A00040E802210029F7D17047034653E8022F46
:1062B000D988B2EB324F4FF0000017BF92B241EADB
:1062C000014142EA014104E05A68B2EB324F08BF93
:1062D000012043E80212002AE8D1704730B4044696
:1062E00054E8000F0D4644E80053002BF8D1156028
:1062F00030BC704730B4044654E8000F40EA010552
:1063000044E80053002BF7D1156030BC704730B41F
:10631000044654E8000F00EA010544E80053002B4E
:10632000F7D1156030BC704730B4044654E8000F14
:1063300080EA010544E80053002BF7D1156030BC1A
:10634000704730B4044654E8000F00EB010544E800
:106350000053002BF7D1156030BC704730B40446B1
:1063600054E8000FA0EB010544E80053002BF7D1DF
:10637000156030BC704770B404464FF0000054E81C
:10638000006F0D68AE4207BF44E80023012044E8D7
:1063900000630E60002B1CBF0020F0E770BC70474C
:1063A00030B4044654E8000F88422CBF451A054615
:1063B00044E80053002BF5D1156030BC7047000055
:1063C0000648804706480047FEE7FEE7FEE7FEE78F
:1063D000FEE7FEE7FEE7FEE7FEE7FEE76D67020089
:1063E000016202002DE9F05F0546002092469B46BF
:1063F00088460646814640241BE0284641464746DB
:10640000224600F074F853465A46C01A914110D300
:1064100011461846224600F016F82D1A67EB0108BF
:106420004F4622460120002100F00DF817EB00092D
:106430004E41201EA4F10104DFDC484631462A46C5
:106440004346BDE8F09F202A04DB203A00FA02F11F
:10645000002070479140C2F1200320FA03F3194352
:106460009040704700487047446B030040EA0103C6
:106470009B0703D009E008C9121F08C0042AFAD2FA
:1064800003E011F8013B00F8013B521EF9D27047BE
:10649000D2B201E000F8012B491EFBD27047002266
:1064A000F6E710B513460A4604461946FFF7F0FF13
:1064B000204610BD421C10F8011B0029FBD1801A98
:1064C000704730B504460020034600E05B1C934251
:1064D00003D2E05CCD5C401BF8D030BD034611F820
:1064E000012B00F8012B002AF9D118467047202A09
:1064F00004DB203A21FA02F00021704721FA02F36E
:10650000D040C2F120029140084319467047000074
:10651000064C074D06E0E06840F0010394E80700F0
:1065200098471034AC42F6D3FFF76EFEA8850300FF
:10653000C885030070B58C1810F8015B15F00703CF
:1065400001D110F8013B2A1106D110F8012B03E00C
:1065500010F8016B01F8016B5B1EF9D12B0705D414
:106560000023521E0DD401F8013BFAE710F8013B5D
:10657000CB1A921C03E013F8015B01F8015B521E79
:10658000F9D5A142D8D3002070BD00002DE9F84F05
:106590000026002000904FF480770125002410E0B1
:1065A000384607F02FFE40B100BF2548006828405C
:1065B00018B1384607F018FE2E436D00381D87B21B
:1065C000641C082CECD34FF4BE7007F01BFE50B1D6
:1065D0004FF4BE7007F008FE46F000466A460121FF
:1065E000002007F0A7FDF0B210B3012500241DE044
:1065F00005EA0600C0B100BF124850F82400C0F3FD
:106600000420814600BF0F4850F82400C0F3014029
:106610008246204602F0BCFE8046B8F1000F02D050
:1066200051464846C04700BF6D00641C082CDFD3AC
:1066300006F0004010B168460CF00CFDBDE8F88F84
:10664000046300401065004010B54FF4807007F0FF
:1066500014F880B14FF4807007F018F8012007F0AB
:106660001FF80D48407930B901200B4948710846A0
:106670000168002088474FF4827006F0FEFF50B199
:106680004FF4827007F002F8022007F009F8024880
:1066900001680120884710BD0C2D002010B5034A69
:1066A0001068034A1168884710BD0000902D002033
:1066B0008C2D002010B504220021024805F060FB5B
:1066C00010BD00000040024010B500F0A7F910BD59
:1066D0002DE9F047074688461646C24607EB4701B4
:1066E0001B4800EBC109D9F8140020B1012811D0D2
:1066F000022826D11EE0484600F0C8F90546B542FA
:1067000001D2002405E0344632465146484600F0A6
:1067100004FA18E0484600F0B9F90546B54201D23E
:10672000284600E03046044622465146484600F0DE
:10673000F4F908E032465146484600F0B5F90446FF
:1067400001E0002400BF00BF2046BDE8F087000044
:10675000CC45002010B509F021FA10BD01480249CE
:10676000086070470090D0034C2E002010B506F052
:1067700011FB28B190480088C0F304208F490860BD
:1067800006F064FB10B18E488E49486706F0C0FBE6
:1067900030B18948E0380068C0F342308A49086067
:1067A00006F0E4FB28B18948006820F08070874932
:1067B000086006F0FDFB48B10020854908604FF0F5
:1067C0008041C1F810018049091F086006F01EFCD5
:1067D00018B103207C496431086006F039FC68B1C7
:1067E00005207C49086001207A4978310860002042
:1067F0007849083108603F20091F086006F04AFC0C
:10680000002855D06C48E0300068734908606A4839
:10681000E4300068091D08606748E8300068091D19
:1068200008606548EC300068091D08606248F03077
:106830000068091D08606048F4300068091D0860A0
:106840005D48F83000686449203108605A48FC30DF
:106850000068091D086061480068091D08605F48FC
:10686000001D0068091D08605C4808300068091DAB
:1068700008605A480C300068091D086057481030FD
:106880000068554940310860544814300068091DBB
:106890000860524818300068091D08604F481C30D5
:1068A0000068091D08604D4820300068091D086017
:1068B00006F042FA30B14048CC38006800F04F0092
:1068C0004749086006F094FA40B14648006800F075
:1068D000010018B16FF001004249086006F0D8FAD3
:1068E00028B14148006840F480603F49086037485B
:1068F0007438006840F4700034497439086000BF8F
:1069000000BF00BFBFF34F8F00BF00BF00BF00BF7D
:1069100000BF00BFBFF36F8F00BF00BF00BF00BF4D
:1069200006F0D6FA20B13148006827491C310860CA
:1069300000BF2E480838006800F0004028B92B48F6
:10694000001F006800F0004090B3012009F0AEFF86
:10695000152026490839086009F0B2FF15214FF0CB
:106960001020C0F8041209F0ABFF002009F09EFFD0
:1069700000BF00BF00BF00BF00BFBFF34F8F00BF0D
:1069800000BF00BF1148F038006800F4E06018490B
:106990000843001D0D49F039086000BF00BF00BF6B
:1069A000BFF34F8F00BF00BF00BF00BF00BFFDE7B8
:1069B000FFE7FFF7D3FE10BD240300104035014070
:1069C0000DF0ADBA00C007403C050040FCED00E012
:1069D0000C0100401056004020C500402404001067
:1069E000E40E0040000400403C1700400812001074
:1069F0000000FA0510B504220249034805F01CFA0C
:106A000010BD0000C03D00200090004010B50249BC
:106A10000868804710BD0000142D002010B5124CEE
:106A200002202061606111A0A0611349E1614FF46F
:106A3000007121620021A1626162E1620BA0A06489
:106A40000E49E164102121650021A1656165E165C0
:106A50000BA1E01DFFF742FD0AA12046FFF73EFD16
:106A60002020A07110BD0000B44500205465726D57
:106A7000696E616C000000002C4600202C4800204C
:106A800052545400534547474552000010B5014643
:106A90000A69CB689A4204D88C68641EE41AA0186C
:106AA00001E0D41A601E10BD2DE9F0470446894666
:106AB00017464FF0000AE56800BFD4F81080A845DB
:106AC00003D9A8EB0500461E04E0A5EB0800401C16
:106AD000A1680E1AA068401BB04201D9304601E0FF
:106AE000A068401B0646BE4201D2304600E0384650
:106AF00006466168481932464946FFF7B7FCB2447A
:106B0000B144BF1B3544A068A84200D10025E56010
:106B1000002FD2D15046BDE8F0872DE9F04704465A
:106B200089461546E668A068871BAF4208D96168A8
:106B300088192A464946FFF799FC7019E06010E071
:106B4000B8466168881942464946FFF78FFCA5EBB5
:106B5000070809EB070142466068FFF787FCC4F8A5
:106B60000C80BDE8F08702E008C8121F08C1002AA7
:106B7000FAD170477047002001E001C1121F002ABE
:106B8000FBD170470146202908DA012088400A4AD3
:106B9000104008B1012070470020FCE7402909DAC5
:106BA000A1F12000012202FA00F008B10120F2E771
:106BB0000020F0E70120EEE7FC06FFBD00BFEFF389
:106BC0001081084672B67047F8B505460E46C6B93C
:106BD000694628460BF056FA044643F202018C42FD
:106BE00008D000BF274627B100BF384600F0D2FAD0
:106BF00000BF00BF9DF80000C0F3400000B1F8BD29
:106C000000BF002128460BF04FFA0446002C5CD050
:106C1000112C5AD00D2C21D12D492E4A891AC90880
:106C2000022242EA01402A462B4908F097F9132133
:106C3000284676DF0446002C47D0204609F09CF811
:106C400007462349234A891AC908022242EA014019
:106C50002B463A4621A108F08DF936E00B2C0BD1DA
:106C60001B491C4A891AC908022242EA01402A46E5
:106C7000284908F073F928E043F2020084420BD15E
:106C80001349144A891AC908022242EA01402A46D5
:106C9000214908F063F918E0204609F06DF807462D
:106CA0000B490C4A891AC908012242EA01402B46C5
:106CB0003A461AA108F05EF900BF274627B100BF87
:106CC000384600F067FA00BF00BF00BF97E700003A
:106CD00010860300D88503005472030073645F625A
:106CE0006C655F6761705F646973636F6E6E656327
:106CF0007428292072657475726E6564202573206E
:106D00006F6E20636F6E6E5F68616E646C652025C8
:106D1000642E000014730300C8720300417373658E
:106D20007274696E672E20706D5F636F6E6E5F7335
:106D3000656375726528292072657475726E656465
:106D4000202573206F6E20636F6E6E5F68616E64C6
:106D50006C652025642E000070B505460C4605B113
:106D60000CB9002070BD287840082178B0EB510F95
:106D700001D00020F6E70622611C681CFFF7A1FB8A
:106D800008B90120EEE70020ECE7014601F003001E
:106D900008B9012070470020FCE7024650680068EF
:106DA000401E084008B9012070470020FCE7024659
:106DB000002104E0505C08B101207047491C0629FD
:106DC000F8D30020F9E710B50346D868884206D802
:106DD0008818401E1C69A04201D8012010BD002067
:106DE000FCE7000010B504466CB10848C068A0423A
:106DF00009D806480069A04205D3204605F033FAB9
:106E000008B1012010BD0020FCE70000502E00203A
:106E100070B504460D4604F22740FFF7C8FF06464A
:106E2000012D06D0022D0DD0032D11D0042D19D126
:106E300013E0A07928B194F8240010B90EB1012014
:106E400070BD00BFE07910B10EB10220F8E700BFBD
:106E5000207A08B10320F3E700BF607A08B104206C
:106E6000EEE700BF0020EBE70146481C052290FB3F
:106E7000F2F302FB1300C0B27047014691F82420E0
:106E8000012A01D1EE2000E01F20704710B5012239
:106E90000221002001F0E8FE044600BF1CB1072CCF
:106EA00001D0204610BD00BF07220221012001F0C1
:106EB000DBFE044600BF1CB1072C01D02046F1E7E1
:106EC00000BF0A220021084601F0CEFE044600BFA2
:106ED0001CB1072C01D02046E4E700BF0020E1E709
:106EE00030B5ABB0AC216846FFF7D9FA02208DF877
:106EF000000000208DF8020005208DF8030001211C
:106F0000ADF84C100F49149101218DF87C104021EF
:106F1000229144F2506123910B48299069460B4815
:106F200000F00FFD044600BF254625B100BF2846EE
:106F300000F030F900BF00BF0121044800F0FEFC62
:106F40002BB030BD582B0020D10803006C3200203C
:106F500070B50446012C02D102F0BEFD0EE0032103
:106F6000074800F0B5FD054600BF2E4626B100BF1C
:106F7000304600F00FF900BF00BF00BF70BD000039
:106F80006C32002070B58CB004460D4616460020C9
:106F900005E0C0F10F01615C0DF80010401C1028E5
:106FA000F7D30D2104A8FFF77AFA002005E02A5C48
:106FB000C0F10F0304A9CA54401C0328F7D3684644
:106FC00046DF002005E0C0F10F0208A9895C3154BA
:106FD000401C0328F7D30CB070BD10B50446022046
:106FE00001F0EAFC10BD000010B50446024801782B
:106FF000204600F0FDFE10BDF02C002010B500244E
:1070000007E00749096811F83400012108F060FF22
:10701000641C044800788442F3D3002010BD0000B3
:10702000302D0020342D00202DE9F84306460D4672
:1070300017460A2F02D20720BDE8F88309F08CF822
:1070400038B909F01FF8044600BF204600B1F3E745
:1070500000BF1848066018480570184807601021DE
:107060001748FFF71CFA0021164A1160516015E01D
:1070700006EBC50814480068009098F802008DF8E7
:10708000010098F80000114A694608F077FF0446AD
:1070900000BF204600B1CFE700BF00BF281EA5F10A
:1070A0000101CDB2E4D10A4A00210A4800F08EF86D
:1070B000C2E70000302D0020342D0020382D0020A4
:1070C000CC3D0020602D00202067030021B302008A
:1070D000759B02001C67030072B600BF08F022F81F
:1070E00000BF00BF07F0A2FD0028FBD100BF00BF1A
:1070F0001D491E4A891AC908012242EA01401CA101
:1071000007F022FF00BF1D48006800F0010000B139
:1071100000BE00BF1449154A891AC908022242EA72
:10712000014017A107F010FF00BF00BF00BF00BF64
:1071300000BFBFF34F8F00BF00BF00BF0F48E43850
:10714000006800F4E06012490843001D0B49E4396F
:10715000086000BF00BF00BFBFF34F8F00BF00BF7C
:1071600000BF00BF00BFFDE7B0860300D885030065
:10717000466174616C206572726F7200F0ED00E020
:1071800053797374656D2072657365740000000037
:107190000000FA053EB504460020009001900290E0
:1071A00002946A46002144F20100FFF795FF3EBDBC
:1071B0000246501A20F07F407047000010B5024888
:1071C00002F06CFD10BD0000682D002030B50346B4
:1071D0000C460AB9072030BD19684FF0FF358D60A5
:1071E000CD604A61012C01D1012000E0002008613E
:1071F0000020F0E72DE9F04705462C46FFF7DEFFBB
:107200000746E169086A00F0E5F84FEA5008B8F16E
:10721000050F01D9404600E005208046E06990F85E
:10722000270008B9BDE8F087A2694C215068012207
:10723000425000BFA0694068D0F84C6521692246E1
:107240000868414600F05CF860690068B04207D009
:10725000606906606069476001206169087216E034
:10726000606941683846FFF7A3FF81466069007A8C
:1072700060B1484600F096F8E169096A884205D98C
:10728000002061690872204607F0FEF900BF00BFC8
:10729000C8E7000038B5134800680090082358225A
:1072A00011491248006805F02EFF04460CB1204633
:1072B00038BD0F4A69460F4802F0F6FC04460CB18F
:1072C0002046F5E701210B4802F094FD01230A4A0C
:1072D0001946084802F0B4FC01200849087020460D
:1072E000E6E7000034670300DC3D0020246703006C
:1072F0005B3D0300682D0020FFFF7F00742D002000
:107300002DE9F84306460D4690463446002000908D
:10731000684600F06FF84FF0FF33D4E9021059408F
:107320005840014308D103F0DDFF401941F100014D
:10733000C4E90201012700E000279DF8000000F0E9
:107340005FF817B90020BDE8F883C4F818802069F9
:1073500000B12561214600200EF0F2F9F3E7F8B5FF
:107360000446254600200090684600F043F84FF0A0
:10737000FF33D5E9021059405840014301D100269E
:1073800004E04FF0FF31A960E96001269DF800009C
:1073900000F036F80EB90020F8BD294601200EF0A5
:1073A000CFF9F9E72DE9F04104460948A4FB0012A2
:1073B00002230020A1FB035C02FB03C201FB0021AE
:1073C0009A0303462846FFF70DF8BDE8F081000058
:1073D00040420F0070B504464FF48040A0FB0450BB
:1073E0000146034A00232846FEF7FCFF70BD00005B
:1073F00040420F0010B5044620460CF03DFE10BD83
:1074000070B5044625460E488068B0B1ADB9FFF7A7
:10741000D5FB06460A4800680A49086008484068E3
:107420004FF0E021C1F804010020054988601EB931
:1074300000BF62B600BF00BF00BF00BF70BD00004C
:10744000443E002000E100E0F8B505460C46174632
:107450002088001DB84201D90C20F8BD684679DFAC
:10746000064600BF304600B1F7E700BF0320218881
:1074700068542088401C2080192021886854208866
:10748000401C208020884119BDF800000EF0EAFA67
:107490002188084420800020DFE770B504460D46AF
:1074A000204605F0BFF870BD0146480C400408B9FD
:1074B000012070470020FCE710B50446637903F013
:1074C00003022179208805F06BF810BD10B5044641
:1074D000207918B9204600F007F803E02046FFF7AE
:1074E000EBFF00BF00BF10BD2DE9FE4307463E88FD
:1074F0004FF00008002259480178304600F08EFC19
:107500007879C0F3800028B90021384609F0ECFFF3
:10751000BDE8FE8306F5807188B201AB0122072128
:107520000AF002F90546C5B1284608F025FC814657
:107530004B494C4A891AC908012242EA01403346A4
:107540004A46494907F016FD294630460DF0DEF857
:107550000021384609F0C8FFDAE7304604F05AFA4D
:1075600004464FF6FF718C421BD1029804F0A2F939
:1075700004464FF6FF70844213D02146304604F093
:1075800027FA3046FFF730FD58B930460DF052F873
:107590003046FFF729FD20B90021384609F0A4FF45
:1075A000B6E74FF6FF7084421FD10AF0D3FA0446C3
:1075B0004FF6FF70844212D129492A4A891AC90814
:1075C000012242EA014029A107F0BEFC0421304615
:1075D0000DF09CF80021384609F086FF98E7214617
:1075E000304604F0F5F94FF0010806F5807188B2D5
:1075F000224607210AF020F9054625B9012138461F
:1076000009F072FF28E0862D07D130460DF044F8CE
:107610000121384609F068FF1EE0284608F0ACFB5F
:1076200081460F490F4A891AC908012242EA0140DE
:1076300033464A461A49009407F0ACFC29463046C6
:107640000DF064F80021384609F04EFFB8F1000F44
:1076500002D0204604F0C6F900BF59E7ED2C002007
:1076600018860300D88503002C790300436F756CDE
:1076700064206E6F7420616C6C6F63617465206E42
:10768000657720706565725F696420666F72206936
:107690006E636F6D696E6720626F6E642E0000000E
:1076A000487A0300002114E00C48D0F8102401238C
:1076B00008E000BFD0680079884201D1002303E0D0
:1076C000D0680268002AF4D100BF0BB108467047A9
:1076D000491C0A29E8DB4FF0FF30F8E7944100200D
:1076E0002DE9F04104460F46154615B90E20BDE8B8
:1076F000F0810020286000BF0CB90E20F7E700BF22
:1077000000BF206808B90E20F1E700BF00BFE08885
:10771000C11700EB91718910A0EB810109B107201D
:10772000E5E700BF384600F0DBFAC6B2142E01D1FF
:107730000520DCE72079B04201DC0420D7E7E188AE
:10774000206806FB010028600020D0E72DE9FC41FD
:10775000054688461646002437880020308095F874
:107760002D0058B13A463146404600F07BFB0446B6
:1077700000BF204608B1BDE8FC8100BFA87850B129
:107780003A4631464046FFF75FFE044600BF2046BA
:1077900000B1F0E700BFE87860B1E97848B23B4655
:1077A0003246414603F0A6F8044600BF204600B129
:1077B000E1E700BF686868B1696891F900003B467D
:1077C000324641460EF003F8044600BF204600B1A1
:1077D000D1E700BF288900280EDD4346062202219A
:1077E00005F10800CDE900670EF05BFA044600BF22
:1077F000204600B1BFE700BF288A00280EDD4346BF
:107800000722032105F11000CDE900670EF049FAC7
:10781000044600BF204600B1ADE700BF288B00281A
:107820000EDD43461522142105F11800CDE900674D
:107830000EF037FA044600BF204600B19BE700BFB8
:10784000286A58B13B4632464146286A01F096FF05
:10785000044600BF204600B18DE700BF686A58B1FA
:107860003B4632464146686A05F0CEF8044600BF02
:10787000204600B17FE700BF95F82C0000280BDD03
:107880003B463246414628460DF0F4F8044600BF18
:10789000204600B16FE700BF287858B13B4632461A
:1078A0004146284605F09FF9044600BF204600B136
:1078B00061E700BF20465EE7F8B504460E46154670
:1078C000002000902B466A463146204600F008F81A
:1078D00007460FB90020F8BDBDF800002044FAE7C4
:1078E000F0B504460D461E4604B10AB90020F0BDAD
:1078F000002103E0605C401C084481B2481CA8429F
:1079000006DA10888842F5DC481C205CB042F1D1D0
:10791000A94201DB0020EAE7881C87B2605C10B155
:10792000605C401E00E0002083B213B1F818A8424A
:1079300001DD0020DBE717801846D8E780F830101B
:10794000704770B504460D4605B10CB90E2070BDE8
:1079500005F1780001F0B3FE08B90720F7E7002031
:10796000A0702C2205F17801201DFEF77FFD00207C
:1079700084F83000D5F8A4006063D5F8A800A063AF
:107980004FF6FF70A4F8240404F58260C4F82004C4
:10799000002140F22C40C4F82614A4F82A14015502
:1079A000207810B9FF2084F8540004F15500C4F881
:1079B00010042046FFF761FA40F21441085304F224
:1079C000144204F155012846FFF7C0FE064600BFE9
:1079D000304600B1BBE700BF04F231204FF48361B1
:1079E00008512046FFF749FAA4F81C044FF48360BD
:1079F000015904F21C4205F13C00FFF7A7FE0646C0
:107A000000BF304600B1A2E700BF0121512001555F
:107A1000208B81B248200153012084F83C000021D2
:107A20002164502001556169616404F13C02002128
:107A300004F1540072DF064600BF304600B186E70D
:107A400000BF01202070304681E770B504460D4626
:107A50002E462088102804D0112807D026280FD1C0
:107A600009E02146304609F00DF80AE0214630468B
:107A700009F01AF905E02146304609F0B0FA00E0B5
:107A800000BF00BF70BD70B5044694F8540074DFA9
:107A9000012084F82E04002084F8300400215020B6
:107AA00001550621204602F040FF054600BF28464A
:107AB00000B170BD00BFA178204600F009F805466E
:107AC00025B1A06B10B12846A16B88470020F0E7D4
:107AD00070B504460E46207808B9082070BDA6701F
:107AE000002140F22C40C4F82614A4F82A140155B1
:107AF000A07910B1A078012809D0E07910B1A07860
:107B0000012804D0E07970B1A07802280BD1606B15
:107B100030B1012084F82D040820616B884702E011
:107B2000002084F82D0431462046FFF771F9A0703B
:107B3000606BA0B1A078032802D0A07804280ED1F1
:107B4000607960B194F82E0448B9002084F83004BC
:107B5000012084F82F040720616B884702E0002091
:107B600084F82F04182104F13C00FEF798FC012052
:107B700084F83C0004F12C000AF0C6F920B194F816
:107B80002C105120015502E001215120015594F89B
:107B9000240060B104F128000AF0B6F920B194F88D
:107BA00028105220015502E00121522001550021E8
:107BB00050200155A078052824D2DFE800F01F03EB
:107BC0000A11180004F13C0120460CF0E7FF0546BD
:107BD00019E004F13C0120460CF0C8FF054612E014
:107BE00004F13C0120460CF0EBFF05460BE004F1EC
:107BF0003C0120460DF012F8054604E0002084F810
:107C0000310000E000BF00BFA07898B104F13C0251
:107C100004F15400D4F8201472DF05460DB1284653
:107C20005CE794F8301094F8540073DF05460DB10A
:107C3000284653E7606B18B194F83100616B8847B0
:107C400000204BE72DE9F041044600BF14B90E2097
:107C5000BDE8F08100BF1C2221461C48FEF706FC4F
:107C60001B481A490860206860B120687ADF054621
:107C70000DB12846ECE7164821680A680260496899
:107C8000416005E012487BDF05460DB12846DFE77D
:107C9000002617E006EB86000E4901EB800700BFC7
:107CA0004FF6FF70388000BF0B4800EB461078603D
:107CB0000A4A0021381DFFF789FA05460DB1032055
:107CC000C6E7761C002EE5D00020C1E7D43900209D
:107CD000E82B0020C0390020A0390020815B030080
:107CE00010B50446204600F0AFF808B1204610BD9C
:107CF0001420FCE710B50446204600F0A5F820B19A
:107D00002146034805F0A1FA10BD0020FCE7000061
:107D1000003A002070B504460D46164620460DF088
:107D200091FF08B9002070BD034951F82400324684
:107D3000294602F06FFEF6E70C3A002010B5044623
:107D4000204600F081F820B12146034805F07DFA75
:107D500010BD0020FCE70000083A002010B50446E2
:107D6000204600F071F820B12146034805F06DFA75
:107D700010BD0020FCE70000043A002070B5044666
:107D80000025204600F060F850B12146054805F076
:107D90005CFA06460EB1022000E00120054600BF55
:107DA000284670BDFC39002070B5044600252046E9
:107DB00000F04AF850B12146054805F046FA06465B
:107DC0000EB1022000E00120054600BF284670BD2C
:107DD000F839002010B51821044805F006FA0446C9
:107DE000182C00D110BDE0B2FCE70000F0390020F3
:107DF00070B505460C4620460DF024FF50B12846CC
:107E000000F022F830B1044901EB8400294605F066
:107E10001CFA70BD0020FCE70C3A002070B5054646
:107E20000C46164620460DF00DFF50B1284600F0D6
:107E30000BF830B1034901EB84003246294602F0C9
:107E40004AFD70BD0C3A002010B50446142C01DB2D
:107E5000002010BD2146024805F0F7F9F9E70000BF
:107E6000F43900202DE9FC4105460C4617462088D0
:107E70000930B84202D90C20BDE8FC8168466DDFAC
:107E8000064600BF304600B1F6E700BF0820218853
:107E900068542088401C20801B202188685420883A
:107EA000401C208020882844DDF801100160BDF8C6
:107EB000051081802088801D20809DF800004008EA
:107EC00018B900202188685402E0012021886854F4
:107ED0002088401C20800020CEE7000070B505F00F
:107EE000E9FB044600BF204600B170BD00BF00BFE3
:107EF000084D28464FF0030C00DF00BF044600BFCA
:107F0000204600B1F1E700BF05F04EFC04462046D4
:107F1000EBE7000058480020014600BF09B90E20D9
:107F2000704700BF014801600020F9E7482E00209B
:107F300010B54FF0FF3100203DDF044600BF204662
:107F400000B110BD00BFB12100203CDF044600BFDE
:107F5000204600B1F5E700BF044841690120884789
:107F6000022007F075FA0020EBE700003C480020F3
:107F700010B505480068416900208847FFF7D8FF21
:107F80000446204610BD0000482E002010B588B0E1
:107F9000044620216846FEF782FA0320ADF800006F
:107FA00020788DF802009DF80D0020F02000203090
:107FB0008DF80D009DF80D0020F0080008308DF8B8
:107FC0000D0001208DF810008DF80C001720ADF881
:107FD000040001208DF813008DF812008DF81100B7
:107FE0006088A21D694601F021FA08B010BD0000AA
:107FF00030B585B00546244B0FCB8DE80F0000BF90
:1080000015B90E2005B030BD00BF4FF6FF701F49F7
:10801000888028684861002008760846406908B9C9
:108020001B4848611948FFF777FF044600BF204608
:1080300000B1E7E700BF00BF01208DF812004FF646
:108040005960ADF8100000BF104A921C04A901202D
:10805000A8DF044600BF204600B1D3E700BF0B49AC
:10806000684662DF044600BF204600B1CAE700BF91
:108070000648FFF78BFF044600BF204600B1C1E76A
:1080800000BF0020BEE70000B06A03003C480020AB
:108090002F9F020070B504460D4600BF04B970BDA5
:1080A00000BF2088102806D0112808D051280AD0F7
:1080B000532810D10BE0204608F0DEFC0CE02046EF
:1080C00008F0E4FD08E0204608F032FF04E0204616
:1080D00008F0A4FE00E000BF00BF00BFDFE7000023
:1080E00070B504460426207B012802D0022822D144
:1080F00009E001F029FF05460DB9012602E0112D26
:1081000000D1062619E0607B142801DC607B08B9E9
:1081100005260FE0627B04F10E011248FEF7A6F976
:10812000607B1049091F886108460CF0A5FD0546D3
:1081300005B9012601E0022600BF00BF012E0FD0C5
:10814000207B314600F058F8054625B10648006806
:108150004169032088470448006841690220884734
:1081600070BD000068480020482E002070B505460C
:108170000E4600BF1E48006820B11D48406808B187
:10818000012000E0002000B970BD00BF184800F1D8
:108190000801426828469047044600BF082C24D0B6
:1081A0007CB900201349096848760121022000F0BB
:1081B00023F80446CCB10F48006841690320884782
:1081C00013E000200B49096848760621022000F0E0
:1081D00013F8044624B10748006841690320884722
:1081E0000448006841690220884700BFCCE70000CE
:1081F00058480020482E0020F0B587B004460D46B0
:108200000327002001900290039004900320069021
:1082100020208DF814008DF815408DF816500E486A
:10822000C088ADF8040002208DF806000020ADF8EB
:10823000080006A8039005A804900749888801A9AA
:10824000AEDF064626B9BDF81800032800D00C267C
:10825000304607B0F0BD00003C48002010B5044691
:1082600034B1012C0FD0022C18D0032C2FD120E0D8
:108270001D491E4A891AC908032242EA01401CA16D
:1082800006F062FE2EE01849184A891AC90803222E
:1082900042EA014022A106F057FE23E01249134AA8
:1082A000891AC908012242EA014026A106F04CFEC3
:1082B00018E00D490D4A891AC908012242EA014015
:1082C0002FA106F041FE00BF002000BF0AE00649D2
:1082D000064A891AC908012242EA014034A106F07F
:1082E00033FE00BF00BF10BDB0860300D885030079
:1082F0004465766963652069732070726570617288
:10830000696E6720746F20656E74657220626F6F8E
:10831000746C6F61646572206D6F64652E0000007F
:108320004465766963652077696C6C20656E746559
:108330007220626F6F746C6F61646572206D6F6420
:10834000652E00005265717565737420746F206529
:108350006E74657220626F6F746C6F6164657220F9
:108360006D6F6465206661696C6564206173796E08
:108370006368726F6E656F75736C792E0000000014
:108380005265717565737420746F2073656E642017
:108390006120726573706F6E736520746F20636CFB
:1083A00069656E74206661696C65642E000000006A
:1083B000556E6B6E6F776E206576656E7420667293
:1083C0006F6D20626C655F6466755F627574746F53
:1083D0006E6C6573732E0000F8B505460F4628884D
:1083E000212847D006DC10280BD0112833D01328C1
:1083F00072D14FE03B2871D052285CD05628F7D17B
:108400007AE04649464A891AC908032242EA0140ED
:1084100044A106F099FD072000F054FC044600BF7B
:10842000264626B100BF3046FEF7B4FE00BF00BFAF
:10843000A8883F490880084601883E4805F0B6F8FC
:10844000044600BF264626B100BF3046FEF7A2FE16
:1084500000BF00BF5FE03149314A891AC9080322D1
:1084600042EA014034A106F06FFD4FF6FF7030493B
:10847000088050E000200090A88869468FDF0446FD
:1084800000BF264626B100BF3046FEF783FE00BF80
:1084900000BF40E000231A468521254800887FDF81
:1084A000044600BF264626B100BF3046FEF772FEE6
:1084B00000BF00BF2FE000231A4619461C48008861
:1084C000B1DF044600BF264626B100BF3046FEF7A6
:1084D00061FE00BF00BF1EE01CE0FFE7A88813217B
:1084E00076DF044600BF264626B100BF3046FEF7C1
:1084F00051FE00BF00BF0EE0A888132176DF0446BE
:1085000000BF264626B100BF3046FEF743FE00BF3F
:1085100000BF00E000BF00BFF8BD0000B086030050
:10852000D8850300436F6E6E656374656400000058
:10853000542B002060320020446973636F6E6E65B7
:10854000637465640000000070B505460E46288817
:10855000102802D011282CD115E01748006860B906
:1085600001F0F6F9044600BF34B11448006818B1B0
:10857000204612490968884700BF0F480068401C20
:108580000D49086016E00C480068401E0A49086062
:108590000846006860B9FEF779FC044600BF34B1B4
:1085A0000648006818B1204604490968884700BF9A
:1085B00000E000BF00BF70BDE42B0020E02B0020D6
:1085C00070B504460D462088102806D0112808D022
:1085D00012280ED0502810D107E0204608F0DAF912
:1085E0000CE0204608F038FB08E0204608F028FDA3
:1085F00004E0204608F0B6F900E000BF00BF70BDFF
:108600002DE9F04104460F46A6882088102806D0A0
:10861000112817D019283DD01A2848D116E00BF0A0
:10862000F7FA30460BF068F920B900BF0420FEF7D6
:10863000B1FD06E0E07B022803D131461D4804F07D
:1086400013FE34E030460BF007FB30E0207A0509DA
:10865000042D01DB012000E00020024631461548D0
:108660000C3002F038F9032D01DB012000E000207E
:10867000024631460F48083002F02DF9022D01DB89
:10868000012000E00020024631460A48001D02F0A9
:1086900022F90CE0207A48B9607AC0F3C0052A4676
:1086A000314604480C3002F016F900BF00BF00BF8D
:1086B000BDE8F081FC39002070B504460D4600BFCE
:1086C0000A48007800B970BD00BF204603F048FD9D
:1086D00000B1F8E7204603F057F820460CF0E8FB1D
:1086E000204602F0DFFB00BFEDE70000242C002055
:1086F0002DE9F04186B00446884617461D4600BF66
:108700001CB90E2006B0BDE8F08100BF01AA2946C1
:108710006069FEF7E5FF064600BF304600B1F1E7AD
:1087200000BF4FF6FF70854201D0019808B90520BF
:10873000E8E70198007808B90820E3E73888F428CA
:1087400001DD0720DEE700200290039004900590F1
:10875000A088ADF80800CDF81480049701208DF8AA
:108760000A0002A92846AEDFCCE7000070B58EB043
:1087700004460E463E4B0FCB09AD0FC500BF14B9E2
:108780000E200EB070BD00BF00BF0EB90E20F8E77E
:1087900000BF3068A061214609A862DF054600BF1E
:1087A000284600B1EDE700BF20788DF836000120A3
:1087B000ADF83400A21C0DA9A8DF054600BF28466D
:1087C00000B1DEE700BF202101A8FDF768FE02200E
:1087D000ADF8040020788DF80600F420ADF808000C
:1087E0000120ADF80A008DF810009DF8110020F06E
:1087F000080008308DF811009DF8110020F00400E9
:10880000001D8DF8110001208DF815008DF816005F
:10881000608804F10C0201A900F008FE05460DB1C4
:108820002846AEE7202101A8FDF739FE0320ADF868
:10883000040020788DF80600F420ADF8080001202F
:10884000ADF80A008DF810009DF8110020F010001E
:1088500010308DF8110001208DF815008DF81600EC
:108860008DF817006088221D01A900F0DFFD88E760
:10887000CC66030070B504460D4605B104B970BD61
:108880002E462088102804D0502807D057280FD112
:1088900009E02146304608F0B5F80AE021463046A6
:1088A00008F0FAFB05E02146304608F0CDFA00E07A
:1088B00000BF00BF00BFE2E770B5044620460DF0E0
:1088C000CBF80546C5F3400070BD70B504462046A0
:1088D0000DF0C2F8054605F0010070BD38B507F08F
:1088E0001BF9044600BF254625B100BF2846FEF708
:1088F00051FC00BF00BF002000906946012006F037
:1089000029FF044600BF254625B100BF2846FEF7D3
:1089100041FC00BF00BF684606F0ECFF044600BF04
:10892000254625B100BF2846FEF734FC00BF00BF36
:1089300038BD000001460148405C7047DC6403001C
:1089400010B50146094B585C00BF4FF0A0442346C8
:1089500000BFD3F81045C44004F001040CB101205D
:1089600000E00020024682F0010010BDDC6403003C
:108970007CB500240DE00848055D0326002000902A
:108980003346024601460190284605F065FB00BFCC
:10899000641C042CEFD37CBDDC64030010B50446DA
:1089A00004F0010008B100F04BF804F0020008B137
:1089B000FFF7DEFF10BD000010B502460949885CD4
:1089C00000BF4FF0A0442146D1F804350124844073
:1089D0009C43C1F80845012484401C40C1F80C4563
:1089E00000BF10BDD864030010B504460249085DFD
:1089F000012105F0D6FB10BDD864030010B5044674
:108A00000249085D002105F0CCFB10BDD8640300CD
:108A100010B50146094B585C00BF4FF0A0442346F7
:108A200000BFD3F80445C44004F001040CB1012098
:108A300000E00020024682F0010010BDD86403006F
:108A40007CB500240CE00948055D00200090034639
:108A5000012211460190284605F0FEFA00BF641C71
:108A6000042CF0D300F004F87CBD0000D8640300AF
:108A700010B5002403E02046FFF7B6FF641C042C69
:108A8000F9D310BD10B5002403E02046FFF7B6FF70
:108A9000641C042CF9D310BD02464FF0FF300021B6
:108AA00006E0054B5B5C934201D1084602E0491C9D
:108AB0000429F6D300BF7047DC64030070B5054697
:108AC0000C4600260648056014B120460CF062FCF6
:108AD0000448006810B9FEF7D9F90646304670BD63
:108AE000E02B0020E42B002010B5002000F014FB48
:108AF000044600BF1CB1062C01D0204610BD00BFAB
:108B0000012000F009FB044600BF1CB1062C01D077
:108B10002046F3E700BF0020F0E700002DE9F04118
:108B200006460F464FF0000800243046FFF7B4FF1A
:108B30000446042C3ED20FB3012F02D0022F38D1AD
:108B400030E004EB4400214911F8008004EB4400BC
:108B50000844407850B11E4A4FF480411D480068D7
:108B6000FEF7CEFB05460DB91948067004EB44002C
:108B7000164908448078184908551AE015480068D5
:108B8000FEF7EDFB1448005D04EB44010F4A11446D
:108B90008978884205D104EB44001146084490F8D6
:108BA000028006E004EB44000849084490F8018084
:108BB00000BF00BFB8F1000F06D00848006818B128
:108BC0004046064909688847BDE8F081943900208D
:108BD000D82B0020E8640300D92B0020B02B002004
:108BE00010B50446042C03D22046FFF7A9FE10BDA1
:108BF0000020FCE770B50546042D06D0072D15D0E2
:108C00000A2D29D10CF02EF927E0132114480088F1
:108C100076DF0446082C08D000BF264626B100BFE8
:108C20003046FEF7B7FA00BF00BF16E00C480088D8
:108C30004FF6FF7188420ED10A48FEF724FF044622
:108C4000082C08D000BF264626B100BF3046FEF7EC
:108C5000A1FA00BF00BF00E000BF00BF70BD000070
:108C6000542B00206C32002030B503460020042B2A
:108C700023D2012A07D1012903D103F10E04E4B262
:108C800000E00024224679B1012902D0022911D145
:108C900004E003EB43040A4D2A550DE003EB4304C3
:108CA000074D2C44627007E003EB4304044D2C4451
:108CB000A27001E0072000BF00E0072030BD0000E7
:108CC0009439002070B5044600250548007800F06E
:108CD000010018B1204600F05BF80546284670BD3B
:108CE000642B00202DE9F04105460F4600241F4863
:108CF00005601F48076005F0020000B3002606E08B
:108D0000012211463046FFF7AFFF0446761C042EC1
:108D100001D2002CF4D034B940F23332042115488A
:108D2000FEF782F9044614B9FEF768F904462CB937
:108D3000114A00211148FEF749FA044600BF05F028
:108D4000010080B10120FFF729FE2CB90C4A002157
:108D50000C48FEF73BFA04462CB90B4A01210B489C
:108D6000FEF734FA04462046BDE8F081642B00206B
:108D7000B02B0020EC64030081920200E864030041
:108D8000F9C20200E0640300DB6F0200E464030048
:108D90002DE9F047044600260025DA48007820B186
:108DA0000020D849087003F093FA182C7ED2DFE82F
:108DB00004F00C16174A7EB2F6F4F3F2F1F0EFEE7F
:108DC000EDECEBEAE9E8E7E6E5E403F081FACE480A
:108DD0000068FEF7C4FA0646CC4804708DE100BF77
:108DE0000020FFF715FE58B10020FFF7FDFD022C13
:108DF00002D14FF4E16001E04FF47A60054609E0EA
:108E00000020FFF7FBFD022C01D1C82001E04FF448
:108E1000C8700546BD4804704FF40040A5FB001023
:108E20004FF47A73CF1840F100015A0000233846FE
:108E3000FDF7D8FA814600224946B3480068FEF79C
:108E40005FFA064659E10020FFF7E2FD58B1002025
:108E5000FFF7CAFD032C02D14FF4487001E04FF434
:108E60007A60054609E00020FFF7C8FD032C01D118
:108E7000C82001E04FF4C8700546A44804704FF4C0
:108E80000040A5FB00104FF47A728F1840F10001EA
:108E9000520000233846FDF7A5FA814600224946D4
:108EA00099480068FEF72CFA064626E124E10020E6
:108EB000FFF7AEFD58B10020FFF796FD042C02D15C
:108EC0004FF47A6001E04FF47A6005460AE0002032
:108ED000FFF794FD042C02D14FF4C87001E04FF469
:108EE000C8700546894804704FF40040A5FB001087
:108EF0004FF47A73CF1840F100015A00002338462E
:108F0000FDF770FA8146002249467F480068FEF767
:108F1000F7F90646F1E00020FFF77AFD50B1002096
:108F2000FFF762FD052C01D1C82001E04FF47A6003
:108F3000054609E00020FFF761FD052C01D1C8209E
:108F400001E04FF4C8700546704804704FF40040CB
:108F5000A5FB00204FF47A73D71840F100015A00A6
:108F600000233846FDF73EFA81460022494666480E
:108F70000068FEF7C5F90646BFE0B8E0B6E0AAE033
:108F8000A1E098E092E05FE05DE05BE059E057E04F
:108F900051E042E033E024E015E00EE0FFE700207E
:108FA000FFF70AFD59480470002240F266615648F6
:108FB0000068FEF7A5F906469FE00020FFF71EFDBA
:108FC0005248047099E001204E490870FFF7F4FC04
:108FD000002240F266614C480068FEF791F90646AF
:108FE0008BE0012047490870FFF7E6FC00224FF4B0
:108FF000005145480068FEF783F906467DE00120F0
:1090000040490870FFF7D8FC002240F266613E48F4
:109010000068FEF775F906466FE0012039490870CF
:10902000FFF7CAFC00224FF4005137480068FEF7F2
:1090300067F9064661E0FFF725FD344804705CE0FF
:1090400000BF00BF00BF00BF31480068FEF787F9CE
:109050000646C4F1110515B30EBB012D18D9A8B2EF
:10906000C82148434FF4004180FB01104FF47A724D
:109070008F1840F10001520000233846FDF7B2F985
:1090800081460022494622480068FEF739F9064623
:109090000220FFF7B3FC01201E49087005E0022002
:1090A000FFF7A2FC00201B49087026E003F010F92E
:1090B0001648047021E003F00BF90020FFF79EFC36
:1090C0001248047019E003F003F90120FFF796FC41
:1090D0000E48047011E003F0FBF80020FFF78EFC4F
:1090E0000120FFF78BFC0948047006E000BFFFF782
:1090F000C9FC0648047000E000BF00BF3046BDE870
:10910000F0870000612B0020E0640300602B00204A
:10911000E4640300682B002010B5044601212046BA
:109120000CF051FE10BD00002DE9FC4704460D4631
:109130001646A71C4FF001080020019001A8FEF779
:1091400059F93048406828602E4840682D498968A0
:10915000411A2D480068401CA0EB010915E00121CF
:109160002A4804F0A5F803F073FB824651462748CD
:1091700004F09EF82348406822498968411A224831
:109180000068401CA0EB010900BF4F45E7D8B8F1CB
:10919000000F30D00021009176B1009921F0030139
:1091A000491C0091009921F00401091D00910099CA
:1091B00064F3891100910DE0009921F00301891CED
:1091C0000091009921F00401091D0091009964F3B8
:1091D0009F5100910B4949680B4A12681140094A96
:1091E0000C3202EB8100009901600649496839445C
:1091F0000C3A516000BF9DF80400FEF701F94046AB
:10920000BDE8FC8794410020002E0020B0450020DE
:1092100070B504460D460A2D03D10D212046FFF7F7
:10922000F7FFA168481CA06020684554D4E90110EC
:10923000884202D3204604F05EFB70BD044880687B
:1092400003494968884201D1012070470020FCE7AA
:10925000944100200246002108E0074B1B6803EB05
:10926000C1000378934200D17047491C034800783D
:109270008142F2DB0020F7E7302D0020342D002062
:1092800010B5044620780221FFF748FC10BD00000D
:10929000F8B5054612490320FFF724FD044600BF38
:1092A000264626B100BF3046FDF774FF00BF00BF61
:1092B00069460020FFF702FC044600BF264626B19F
:1092C00000BF3046FDF766FF00BF00BF9DF80000FD
:1092D000022801D1012000E000202870F8BD000024
:1092E000F58B02007CB50446204602F093FB054650
:1092F00000236A46092108F075FB052805D10122E3
:10930000024801782046FEF789FD7CBD002C002034
:109310007CB504460E460020019042F6A620ADF82A
:10932000040001208DF806000748006800906A4696
:1093300001A92046A0DF05462DB901220348017886
:109340002046FEF76BFD7CBD68650300012C002004
:1093500001468879012809D10879012806D1488871
:1093600042F60212904201D1012070470020FCE732
:109370004FF0FF31054A42F82010082804DBFF2394
:10938000A0F108015032535470470000643D0020A2
:109390000146024850F8210070470000643D00205B
:1093A0002DE9F04F03460C464FF0FF390AB100207B
:1093B00000E0082084460AB1082000E00C20804626
:1093C000614624E0154850F82100401CF0B91D46C4
:1093D0000846274616464FFA80FBDFF840A00AF100
:1093E000300A0AF805B0DFF834A04AF820704EB908
:1093F0004FFA85FBA0F1080ADFF820E00EF1500ECD
:109400000EF80AB000BF4FFA81F902E0491C41454D
:10941000D8D300BF4846BDE8F08F0000643D00206F
:109420000146014840567047943D002070B590B009
:1094300006460C461546A07818B901208DF80E0096
:1094400002E0A0788DF80E002088ADF80C00002016
:109450000290607C02A90BF03FFCA07C0DF1090199
:109460000BF03AFCE07B08B1012000E000209DF801
:109470000A1060F3C3018DF80A10207C08B10120A6
:1094800000E000209DF80A1060F304118DF80A1026
:10949000207B08B1012000E000209DF80A1060F355
:1094A00000018DF80A10207D08B1022000E00120A3
:1094B0009DF80A1060F342018DF80A101C2109A8DA
:1094C000FCF7EDFF607BC0F3001018B9607BC0F3C0
:1094D0004010F8B100200090E07C0DF101010BF08C
:1094E000FBFB00BF9DF8000020F00F00401C8DF832
:1094F00000009DF8000020F0F00010308DF8000012
:1095000000BF9DF8020020F00600801C8DF80200CC
:10951000CDF838D0607B8DF82400A07B8DF8250035
:10952000142104A8FCF7BBFF03A8049002A805902F
:10953000A088ADF81C00A06820B1E088ADF8180044
:10954000A0680890A069002849D000200190A06977
:109550000088ADF82C00A0694088ADF82E00A06905
:1095600040680A9001A80D90A169087B01A90BF041
:10957000B3FBA169487B0DF105010BF0ADFBA069C0
:10958000807A08B1012000E000209DF8061060F309
:10959000C3018DF80610A069C07A08B1012000E06F
:1095A00000209DF8061060F304118DF80610A069E4
:1095B000007A08B1012000E000209DF8061060F359
:1095C00000018DF80610A069807B08B1022000E040
:1095D00001209DF8061060F342018DF80610E06945
:1095E00008B1E0690C902B4604AA09A93046AADF0D
:1095F00010B070BD2DE9F04104460D464FF6FF76E0
:10960000304684420AD14FF48071284603F0EDFDC4
:1096100086B2B6F5807F10D126460EE0FF2C0CDC1A
:109620002146284603F0CAFD80F001070FB120460D
:1096300001E04FF6FF70064600BF3046BDE8F081FE
:1096400070B505460DB9094C01E0084C083409E035
:10965000204602F010FE064606B904E0284671686E
:10966000884700BFF4E700BF70BD0000583D0020F0
:1096700010B504462CB90120064948700020FFF7B8
:10968000DFFF012C04D1012002498870FFF7D8FFC9
:1096900010BD0000503D00202DE9F0470246134662
:1096A0008C46D3E90245DCE90267B6EB040877EBA8
:1096B000050002D30120BDE8F0870020FBE701464A
:1096C0008878012805D191F82000012801D10020D7
:1096D0007047886A042802D0486A042801D1002013
:1096E000F6E70120F4E733B58BB005460020009083
:1096F0000C9878B100240BE021460CA803F0A5FDDE
:1097000028B1009A501C009001A820F81240641C57
:10971000142CF1D32C2269462846FCF7A7FE0DB085
:1097200030BD01460888062808DB0888B0F5486F78
:1097300006DD08884FF6FF72904201D0072070477F
:109740004888062808DB4888B0F5486F06DD488859
:109750004FF6FF72904201D00720F0E708884FF6DD
:10976000FF72904208D04888904205D008884A8805
:10977000904201DD0720E2E70020E0E72DE9F0411B
:1097800007460D46144698462088801D404502D95C
:109790000C20BDE8F0813846FFF7C3FF064600BF46
:1097A000304600B1F5E700BF0520218868542088C5
:1097B000401C20801220218868542088401C208072
:1097C0002288511938880CF04DF9218808442080EE
:1097D0002288511978880CF045F9218808442080A6
:1097E0000020D6E710B5044600BF2046FDF7D2FCA6
:1097F00000BF10BD30B587B01C216846FCF74FFE96
:10980000002000904FF4A03001904FF4F02002901F
:1098100003208DF80C000020ADF80E008DF810002C
:1098200009480590094806906846FEF70BFA044679
:1098300000BF254625B100BF2846FDF7ABFC00BFA1
:1098400000BF07B030BD000039090300E5970200F2
:10985000F8B505460C46607A88B9207A10B91048E8
:10986000476801E00E4887682A4639466068FDF778
:1098700047FD064616B130460AF0EEFE0EE0002027
:1098800020720748406948B101208DF80000ADF80A
:109890000250034841696846884700BFF8BD000090
:1098A000D4390020F0B585B004460D4617461E4653
:1098B00014220B496846FCF7D9FDADF802408DF83B
:1098C0000850ADF80A708DF80C6000220548017848
:1098D0002046FEF7A3FA684600F056FD05B0F0BD3D
:1098E00078660300ED2C002010B586B00446208871
:1098F00007F0B0FD00BB2088FEF7FCF930B92088E6
:10990000012241F2060100F013FB15E0208800223D
:109910000A490978FEF782FA03208DF804002088AE
:10992000ADF8060000208DF80C0000218DF80D1018
:1099300001A800F029FD00BF06B010BDED2C0020ED
:1099400070B504460D4629462046FDF73DF970BD29
:1099500010B5012200210846FFF786F9044600BF32
:109960001CB1072C01D0204610BD00BF07220221E8
:109970000120FFF779F9044600BF1CB1072C01D084
:109980002046F1E700BF042202210020FFF76CF916
:10999000044600BF1CB1072C01D02046E4E700BFFD
:1099A0000020E1E72DE9FF4105460C46002002902A
:1099B0000390ADF80840ADF80A40009001906A4667
:1099C00002A9284690DF0646002E32D0304606F027
:1099D000D3F9074619491A4A891AC908012242EAE5
:1099E00001403B462A46174905F0C4FABDF800007D
:1099F00010B9BDF8020068B1BDF80230BDF8002012
:109A00000E490F4FC91BC908012747EA01400EA1A3
:109A100005F0B0FABDF8040058B1BDF804200749BC
:109A2000074BC91AC908012343EA0140164905F04A
:109A300095FA304604B0BDE8F0810000D8850300F7
:109A4000D8850300486B0300546865207265717502
:109A500065737465642054582F5258207061636B8D
:109A60006574206C656E67746820697320746F6F0D
:109A7000206C6F6E672062792025752F2575206F09
:109A800063746574732E0000946B03002DE9F0413C
:109A900005460F460F4C0121204603F040FC0646C8
:109AA00000BF00BF00BF00BFBFF35F8F00BF00BF9C
:109AB00000BF0EB9012000E0002040B1284602F0AE
:109AC0001FFE08B1BDE8F081024805F045FC00BF6B
:109AD000F8E70000F82B002070B50B490B4A891AF3
:109AE000C908032242EA014009A105F02DFA09F054
:109AF00019FA044600BF254625B100BF2846FDF7E8
:109B000049FB00BF00BF70BDB0860300D8850300CD
:109B1000457261736520626F6E64732100000000FE
:109B200070B506460D4616B14FF4064070BD287953
:109B300020B1012809D0022815D111E00220287196
:109B4000284609F037FF044610E0284600F086FE5C
:109B5000044648F20960844201D141F61D5405E0F3
:109B600041F61D5402E048F20E6400BF00BF2046DB
:109B7000DCE700002DE9F0418046002414E01248A3
:109B8000006800EBC405287806F072FA074668788A
:109B9000012800D100E00020784080F001062878FC
:109BA000314600F01FFB641C084800788442E6DB65
:109BB0000748D0E90010002359405840014301D024
:109BC0000BF0DEFDBDE8F081302D0020342D0020AB
:109BD000602D002070B5044620793D2802D141F265
:109BE0003D0001E04FF488500546208800222946B8
:109BF00002F0D6FC70BD000010B50021034803F050
:109C00008EFB044684F3100010BD0000B045002018
:109C100070B505460C464FF4803000FA04F1284632
:109C200000F0C0FA70BD70B505460C464FF4A07048
:109C300000EB840086B23146284600F04BFB70BD35
:109C40002DE9F04704460D4616461F464FF4803076
:109C500000FA05F84FF4A07000EB85001FFA80F9B8
:109C600026F07F464146206805F056FD41462068B3
:109C700005F043FD4946206805F035FD324629468A
:109C8000206805F020FD4146206805F03CFD1FB12D
:109C90004146206805F046FDBDE8F08710B5044652
:109CA000206805F015FD10BD2DE9F04704460D466E
:109CB00017466079324941F820706079314901EBEB
:109CC000C000007968B108262F49304A891AC908AE
:109CD000022242EA01402EA105F036F93046BDE8E5
:109CE000F08729882068C0F8081500BF94F904207F
:109CF000AB7810461946002808DB4FEA417C4FEA52
:109D00001C68DFF8B0C00CF800800BE04FEA417C23
:109D10004FEA1C69DFF8A0C000F00F08A8F10408A2
:109D20000CF8089000BF00BF94F904100846002802
:109D30000DDB00BF00BF00F01F0301229A40430962
:109D40009B0003F1E023C3F8002100BF00BF00BF68
:109D500000BF012061790B4A02EBC10108716079F3
:109D6000114641F8304000260749084A891AC908B7
:109D7000032242EA014011A105F0E6F83046AEE7C1
:109D80008C2D0020902D002080860300D8850300B4
:109D900052544320696E7374616E636520616C7206
:109DA0006561647920696E697469616C697A65645A
:109DB0002E00000000E400E018ED00E05254433AA9
:109DC00020696E697469616C697A65642E000000AF
:109DD00010B5014691F90400002807DB00F01F03CD
:109DE00001229A40024B440943F8242000BF10BDD1
:109DF00000E200E070B505460C46224602212846E6
:109E000000F0DCF970BD10B504464FF482712046B5
:109E100000F060FA10BD10B504460021206805F07E
:109E200089FC10BD10B504460421206805F082FCB1
:109E300010BD2DE9F84F04468846154699464FF463
:109E4000803000FA08FA4FF4A07000EB88001FFA87
:109E500080FB25F07F455146204600F0A3F920689D
:109E600005F036FC06464146206805F021FC0090CE
:109E700032464146206805F026FC5946206805F028
:109E800032FC314600980BF0AFFB012806D11020C0
:109E900006F002F85946206805F025FC206805F018
:109EA00017FC0646314628460BF09EFB07465146F6
:109EB000206805F028FC012F0FD16A1C414620685C
:109EC00005F001FC102005F0E7FF206805F000FC1C
:109ED000B04225D00D20BDE8F88F2A4641462068C3
:109EE00005F0F1FB206805F0F3FB0646681E3146DD
:109EF0000BF07AFB07466FF07F40A0EB0900B842F9
:109F000001D20D20E7E75FB96A1C4146206805F0E1
:109F1000DAFB206805F0DCFBB04201D00D20DAE767
:109F200001225146204600F049F90020D3E770474E
:109F300070B506460C4615462B4622460021304693
:109F4000FFF7B0FC70BD000010B510480068407EFF
:109F500060B106210120FEF74FF9044624B10B48F9
:109F60000068416903208847002010BD012007498F
:109F70000968087601210846FEF73EF904461CB13F
:109F800000200249096808762046EEE7482E0020A6
:109F90002DE9F84305460E4617469846694610488F
:109FA000006803F0C4F8044614B90420BDE8F8833F
:109FB0001C212046FCF773FA012020712560C4F8AB
:109FC000088008480068B6FBF0F0E0606761694609
:109FD0000348006803F0D5F809F0ECFB0020E5E742
:109FE0003C6903003069030010B50446D4E903213D
:109FF000501828DF10BD0278072A38D2DFE802F0B7
:10A0000037040712222B340000220A7030E00122AC
:10A010000A7003898B818388CB81C2688A600023A0
:10A020000B7425E002220A7003898B818388CB811F
:10A03000C2688A60827D062A01D1012300E00023E4
:10A040000B7415E003220A70C3888B810389CB81CE
:10A05000C2688A600CE004220A70C3888B810023E6
:10A06000CB8100228A6003E005220A7000E000BF75
:10A0700000BF704770B50546002409E0064850F857
:10A08000240020B1044850F8241028468847641C56
:10A09000042CF3D370BD00005C3E002030B587B0C7
:10A0A00004460D462068806808B907B030BD182105
:10A0B00001A8FCF7F4F90295A0680690207910B188
:10A0C000012815D109E001208DF8040020690390D2
:10A0D000E0680490606905900BE002208DF80400B0
:10A0E0000749E0680968484303906069059000E00B
:10A0F00000BF00BF2068816801A8884700BFD4E77F
:10A1000030690300F0B585B005460C461646002CB4
:10A110003ED0112C3CD0082C3AD00D2C24D11D4916
:10A120001D4A891AC908022242EA01402A461B49EF
:10A1300004F014FF2A460421684602F0C9FD2EB13E
:10A14000307800F0010008B1012000E002208DF815
:10A15000080000218DF80C1041F20111ADF80A1031
:10A16000684600F025F913E0204605F005FE074695
:10A170000849094A891AC908012242EA01402B46C6
:10A180003A46074904F0F6FE214628460AF0D2FA7C
:10A1900005B0F0BD20860300D8850300587B03007E
:10A1A000687C030070B504460D462946206805F01A
:10A1B000A4FA2946206805F0AFFA70BD70B50446D0
:10A1C0000E4615463146206805F09DFA1DB1314610
:10A1D000206805F0A7FA70BD10B50446204600F0CF
:10A1E000E7F810BDF8B505460C4628460BF0E6F832
:10A1F00005286AD2DFE800F003212A393F00DCB1EC
:10A20000012128460BF0EAF8002000906846FDF78F
:10A21000F1F82A460126002730463946FCF713F9A3
:10A220002B4AD2E9003218431143294A03C29DF850
:10A230000000FDF7E5F800BF47E00CB1022000E0A8
:10A240000020014628460BF0C9F83EE044B1032146
:10A2500028460BF0C3F8012128460BF013FD03E05C
:10A26000012128460BF0BAF82FE01CB9042128463A
:10A270000BF0B4F829E024B1032128460BF0AEF826
:10A2800022E0002128460BF0A9F8002128460BF017
:10A29000F9FC002000906846FDF7ACF82A4601263C
:10A2A000002730463946FCF7CEF80A46C143D04372
:10A2B000074B0CCB11401840054AC2E900109DF82D
:10A2C0000000FDF79DF800BF00BF00BFF8BD000013
:10A2D000602D002070B505460C462868015929B14B
:10A2E0002146286805F0FFF9012070BD0020FCE739
:10A2F00070B50446608801F08DFBA080002505E064
:10A30000044850F82510204688476D1C002DF7D0D2
:10A3100070BD0000F02B002070B50446A08801F04D
:10A32000A9FA6080002505E0044850F82510204671
:10A3300088476D1C002DF7D070BD0000042C002054
:10A3400070B50546002405E0044850F8241028465E
:10A350008847641C022CF7D370BD0000A865030079
:10A3600070B50546002405E0054850F8241028463D
:10A370008847641C034800788442F5DB70BD000008
:10A38000043D0020322C002070B50446608801F0A6
:10A3900041FBA080002505E0044850F82510204628
:10A3A00088476D1C002DF7D070BD00003866030093
:10A3B00070B50546002405E0044850F824102846EE
:10A3C0008847641C002CF7D070BD0000C4660300F1
:10A3D00010B586B00446142101A8FCF760F8A089E6
:10A3E00000F056FAADF80800207806285ED2DFE8C3
:10A3F00000F05D0304052E4A00BF00BFA08900F0F5
:10A400004CFA18B9E08909F0F6FBF8B1E08909F0D7
:10A41000EFFB8DF80C002078032801D1012100E02A
:10A4200000218DF80D10A1680491606830B90920F1
:10A430008DF8040001218DF8141004E00A208DF835
:10A4400004006168059101A807F018FA2FE0A089BF
:10A4500000F023FAB0B1E089A0B9606838B90B20E8
:10A460008DF80400BDF8080007F058FC04E00C204B
:10A470008DF804006068039001201149087001A85C
:10A4800007F0FCF913E0606818B914208DF8040097
:10A4900004E015208DF80400606803904FF6FF700B
:10A4A000ADF8080001A807F0E9F900E000BF00BF1F
:10A4B0000348007808B107F077FB06B010BD000034
:10A4C000112C002038B505461048007810B948F224
:10A4D000016038BD4FF6FF70854202D148F203603B
:10A4E000F7E7684609F046F8044614B948F20760F1
:10A4F000EFE70520207001202071E580684609F013
:10A5000049F809F04BF90020E3E70000A42D0020F2
:10A5100038B50E48007810B948F2016038BD684679
:10A5200009F028F8044614B948F20760F6E7062057
:10A530002070684609F02EF80548007810B1012017
:10A540000349087309F02AF90020E7E7A42D002049
:10A55000303F002070B586B0142101A8FBF79FFFA3
:10A560003048007828B101A8FFF784FD002006B02C
:10A5700070BD2C48001D02F094FE08B10020F6E7E3
:10A5800000F03AFA06460EB13046F0E709F02EF830
:10A5900006F0A8FE054625B1022D03D0062D12D1E6
:10A5A00007E000BF00201F490870486048F20A60B9
:10A5B000DDE701201B4908700020486001A8FFF773
:10A5C00059FD0020D3E700BF00BF684608F0D2FF66
:10A5D000044614B948F20760C9E7012020700C2D29
:10A5E00016D2DFE805F01506150715111512150A24
:10A5F0000E0B00BF002020710BE000BF0320207174
:10A6000007E00220207104E000BF0120207100E07B
:10A6100000BF00BF684608F0BDFF09F0BFF800208A
:10A62000A5E70000A42D002038B5044614B948F26F
:10A63000046038BD6946204609F0DAF908B3BDF870
:10A64000000000EB8000114901EB8000C068A8B158
:10A65000A07A98B1BDF8000000EB800001EB80000B
:10A66000C068401EBDF8001001EB8101074A02EBF3
:10A670008101C8600020A072002504E048F2056551
:10A6800001E048F209652846D3E70000083F0020B2
:10A690007FB514461D462B46224601A9684609F09F
:10A6A0003FF904B070BD37B50C4615462B4622461F
:10A6B0006946002009F034F93EBD37B50C46154611
:10A6C0002B4622460021684609F02AF93EBD024683
:10A6D00002B111B948F204607047106808600020A8
:10A6E000FAE70000F8B504460D4604B115B948F282
:10A6F0000460F8BD6946204609F07AF9A0B16668A1
:10A70000BDF8001001EB8101094A02EB810101F162
:10A710000C00012102F0CCFD2E6060680C306860F6
:10A720000120A0720020E4E748F20960E1E70000A0
:10A73000083F002070B504460D4614B948F2046085
:10A7400070BD03230022294620460BF035FDF7E7B4
:10A7500070B504460D4602230022294620460BF020
:10A760002BFD70BD70B5054609480068042802D16C
:10A7700048F20B6409E007480549096840F8215090
:10A780000121034802F094FD0024204670BD000022
:10A79000B02D00205C3E00202DE9F84304464FF424
:10A7A000806800262B48007818B948F20160BDE89F
:10A7B000F88314B948F20460F9E712212046FBF748
:10A7C0006EFE0320208000253FE005EB8500224936
:10A7D00001EB8000008905EB85011F4A02EB810136
:10A7E0004989084487B205EB850102EB810148687D
:10A7F00006F0F4FC032802D12088401E20806088E7
:10A8000005EB8501144A02EB8101C96808446080A8
:10A81000208905EB850102EB8101498908442081EB
:10A82000608938446081C7F5806086B2A089B042F3
:10A8300000DAA68104F11000831EA21D211D0090E4
:10A84000284609F02BFA681C85B2022DBDDB0020DA
:10A85000ADE70000A42D0020083F00203EB50446CF
:10A860000A4B6A460021A01D09F05AF8054635B981
:10A87000064A9188019809F035F9054603E0034836
:10A8800000210160416028463EBD0000C02D00202F
:10A890000146A1F5404080B270470146B1F5404FF6
:10A8A00005DB4FF6FE70814201DC0120704700207D
:10A8B000FCE710B504462078182802D1FDF78AFA83
:10A8C000207010BD10B504462078182802D1FDF77D
:10A8D00081FA207010BD70B505460E46144624B1AD
:10A8E0003146284602F0C0FC03E03146284602F01B
:10A8F00056FC70BD30B504461088C01C984201D982
:10A900000C2030BD0220158848551088401C10804E
:10A910000120158848551088401C108015884C551A
:10A920001088401C10800020EBE770B504460D46EF
:10A9300040F21442115B0122D4F81004FCF7BCFF72
:10A94000064606B1357004F13C0204F5826104F15B
:10A95000540072DF70BD00002DE9F04106460C4640
:10A9600015460027112C01D1012700E0002765B111
:10A970003A460A4801783046FDF750FA0022084866
:10A9800001783046FDF74AFA05E03A460448017876
:10A990003046FDF743FABDE8F08100000B2D0020A2
:10A9A000082D002010B54FF4405400F009F8034979
:10A9B000086108460069001BC86010BD502E0020C9
:10A9C00010B540F6F8700068401C18B94FF0102020
:10A9D000406902E040F6F870006803464FF080508E
:10A9E00001694269581C08B1184601E002FB01F0F8
:10A9F0000446204610BD000010B5FFF7D3FF00222B
:10AA00000249034803F036F910BD00004069030015
:10AA1000502E0020F7B50D4617460DB90020FEBD9B
:10AA20000026009868B1002409E02146684602F03B
:10AA30000CFC18B1A0B23946A847761C641C142C33
:10AA4000F3D33046EBE710B50446606808F0FCFD30
:10AA500010BD00003EB500BF9DF8000020F00F00C3
:10AA6000401C00909DF8000020F0F0001030009095
:10AA700000BF0F2214A168467CDF044600BF2546B4
:10AA800025B100BF2846FCF785FB00BF00BF0020B2
:10AA9000019002900820ADF804003C20ADF80600BB
:10AAA0000020ADF808004FF4C870ADF80A0001A806
:10AAB0007ADF044600BF254625B100BF2846FCF7D3
:10AAC00069FB00BF00BF3EBD4E6F726469635F5596
:10AAD0004152545F4446550070B505460C466088A7
:10AAE0000D490988884215D1208840F6772188428F
:10AAF00010D1A088C01E094908800949094A891A4D
:10AB0000C908032242EA014004490B880A8806A1C9
:10AB100004F030FA70BD0000542B0020562B0020AA
:10AB2000B0860300D885030044617461206C656EB3
:10AB30002069732073657420746F2030782558283D
:10AB40002564290070B50E490E4802F090FC0446B9
:10AB500000BF254625B100BF2846FCF71BFB00BF00
:10AB600000BFF721074802F073FC044600BF2546EA
:10AB700025B100BF2846FCF70DFB00BF00BF70BD2C
:10AB8000D9AA02004C32002070B5054615B14FF429
:10AB9000064070BD1848007B18B1002016490873A4
:10ABA00001E000F0DFF81448007808281DD2DFE843
:10ABB00000F01C04080C101C141800F03FF80446A8
:10ABC00016E000F0BDF8044612E000F099F80446E3
:10ABD0000EE000F047F804460AE000F035F90446BC
:10ABE00006E000F043F9044602E048F20E6400BFBC
:10ABF00000BF2046CDE70000303F00200D4800890F
:10AC0000401C0C49088100204880087300BF0DE0FB
:10AC100000EB8001084A12F8211009B9012200E076
:10AC2000002204490A310A54411C88B20228EFDB91
:10AC300070470000303F0020083F002010B5084852
:10AC400000F036F840B900200549891E0870488098
:10AC5000486041F61D5010BD00F072F8FBE700009F
:10AC6000323F002070B50F48458805EB85000E493E
:10AC700001EB8000C06878B904200A49087005EB30
:10AC80008500094A02EB8000002301224168074841
:10AC900002F038FF044602E000F090F80446204637
:10ACA00070BD0000303F0020083F0020502E0020E3
:10ACB00010B501460022002018E00F4B1B5C9BB131
:10ACC00000240D4B1C5400EB80030C4C04EB83035D
:10ACD000DB684BB900EB800304EB83031B7C012B87
:10ACE00002D10880012203E0431C98B20228E4DB71
:10ACF00000BF104610BD00003A3F0020083F002072
:10AD0000F8B50C4844680C4800680B49898800EB8A
:10AD100081056088C01C86B20320064908700020A7
:10AD2000B3000090084629464268044803F062F8E0
:10AD3000F8BD0000303F0020B82D0020502E00202C
:10AD400010B507494888091D08F090FE18B1FFF7B3
:10AD5000D7FF044602E0FFF785FF0446204610BDFA
:10AD6000303F002010B514480078082820D2DFE8D2
:10AD700000F0041F1F0A1016171BFFF73FFF0120EA
:10AD80000D49087015E000F07DF802200A490870AE
:10AD90000FE000F029F806200749087009E000BF1D
:10ADA00007200549087004E001200349087000E00D
:10ADB00000BF00BF10BD0000303F002010B50520CF
:10ADC00006490870022006498880084600230122AF
:10ADD0000168044802F096FE10BD0000303F0020DC
:10ADE000B82D0020502E00201449086814494988C5
:10ADF00001EB8101134A02EB810149680F4A11609E
:10AE00000F49498801EB81010E4A02EB810148603C
:10AE10000A4989880A4A528802EB8202094B03EBED
:10AE2000820211810221054A91800021044A528840
:10AE300002EB820203EB820211747047B82D0020EE
:10AE4000303F0020083F002010B50620054908705B
:10AE5000498801EB8101044A02EB8101486806F050
:10AE60001FFA10BD303F0020083F002010B507201A
:10AE7000034908700020486006F022FA10BD000067
:10AE8000303F0020054A50684288D21C91B2044AE3
:10AE900092880A44024B9A8070470000303F00209D
:10AEA000B82D00202DE9F04186B00446A688208800
:10AEB00050282ED004DC352836D0362808D189E039
:10AEC000522802D05428F9D103E0304601F0AAFB01
:10AED000B9E01422634901A8FBF7C8FAADF806608F
:10AEE000304600F097FDADF80800BDF8080000F00E
:10AEF0003FFA00225C4801783046FCF78FFF0022C1
:10AF00005A4801783046FCF789FF01A8FFF7F0F9AD
:10AF100099E0A01DFEF71CFA28B10121304601F08E
:10AF2000E3FB0AF013FE8EE00027A68804F10A0571
:10AF30004F4801783046FCF75BFF00B983E0002200
:10AF40004B4801783046FCF769FFE088B0F5857F13
:10AF50003AD0E08858B1E2884649474BC91AC90837
:10AF6000022343EA014045A103F0F8FF2CE02888C2
:10AF700001280AD02A883F493F4BC91AC908022331
:10AF800043EA01404CA103F0E9FF688801280BD097
:10AF90006A883849384BC91AC908022343EA014074
:10AFA00054A103F0DBFF0FE0A98800223046A1DFA7
:10AFB0008046B8F1000F06D1012701225C480178D4
:10AFC0003046FCF72BFF00BF1FB9002130460AF0C6
:10AFD00095FA38E00027A68804F10A05544801785C
:10AFE0003046FCF705FF00B92DE0002250480178FB
:10AFF0003046FCF713FFE08858B1E2881D491E4B2C
:10B00000C91AC908022343EA01401CA103F0A6FFA4
:10B0100014E0A88801280BD0AA881649164BC91A33
:10B02000C908022343EA014032A103F097FF05E07B
:10B03000A87908B1012000E00020074639463046D3
:10B040000AF05CFA00BF00BF00BF002239493A484D
:10B050000078FCF75FFE00BF09F01AFC06B0BDE8FF
:10B06000F08100007C650300FF2B0020FE2B0020F8
:10B07000012C0020E0850300D8850300556E65781B
:10B08000706563746564204741545420737461741F
:10B090007573207768696C652067657474696E677D
:10B0A0002043415220636861722076616C75653A75
:10B0B00020307825780000004D756C7469706C65DF
:10B0C000202825642920434152206368617261630E
:10B0D00074657269737469637320666F756E642C2E
:10B0E000207573696E672074686520666972737471
:10B0F0002E000000556E65787065637465642043AA
:10B100004152206368617261637465726973746926
:10B11000632076616C7565206C656E6774682028A5
:10B120002564292C2073746F726520302E00000076
:10B13000022C00209B740200FD2B002010B5044659
:10B14000207858B9608801F06DFA608809F090FBAA
:10B150006088FEF7C7F80AF0F9FC00E000BF00BF06
:10B1600010BD000010B500F0B1FDFCF733FE2A4918
:10B170000870FCF72FFE29490870FCF72BFE2849C0
:10B180000870FCF727FE27490870FCF723FE2649C4
:10B190000870FCF71FFE25490870FCF71BFE2449C8
:10B1A00008701D480078182817D01C480078182807
:10B1B00013D01B48007818280FD01A480078182898
:10B1C0000BD019480078182807D01848007818289C
:10B1D00003D00846007818280BD11649164A891A58
:10B1E000C908012242EA0140144903F0ADFE0320E0
:10B1F00010BD00BF00201249086000BF00BF00BFA3
:10B2000000BFBFF35F8F00BF00BF00BF00BF0120C2
:10B210000C4908700020EBE7FC2B0020FD2B0020E0
:10B22000FE2B0020FF2B0020002C0020012C0020F2
:10B23000022C0020E0850300D8850300EC6B03009E
:10B24000F82B0020F42B00207CB504462078092838
:10B2500040D1607A00283DD1207A012814D00728F7
:10B2600002D0082834D12BE0A08800F003FB05466B
:10B270004FF6FF70854206D00121284601F034FACE
:10B280002846FEF72FF824E0A0886A46012106F040
:10B29000E9F906469EB90198007880B1A08800F0CF
:10B2A000E9FA05464FF6FF70854207D001220B48A8
:10B2B00001782846FCF7B2FD09F0EAFA00BF08E081
:10B2C00007480068012802D1054804F045F800E06D
:10B2D00000BF00BF0AF03AFC7CBD0000FE2B00203E
:10B2E000F82B002070B50B48FEF7D8FC0A4B0CCBAE
:10B2F000841843F10005094903C9201A75EB0100C0
:10B3000004D24FF08073E41845F100052046294629
:10B3100070BD0000682D0020782D0020802D0020B9
:10B320002DE9F04104468846E0B2FDF793FF05465B
:10B33000287804F09DFE07466878012800D100E0D7
:10B340000020784080F001064EB10648D0E9001098
:10B35000002359405840014301D10AF011FABDE8D9
:10B36000F0810000602D00200146012088407047D8
:10B370001CB50446044903C9CDE900010022694611
:10B38000204606F07DFB1CBDA065030010B500F053
:10B39000A3FC012001490870002010BD082C0020EA
:10B3A0002DE9FC470546284600F034FB06460027F9
:10B3B000B8464FF003094FF0010A4FF6FF7086427E
:10B3C0000DD06A460821304606F04CF9044634B9DF
:10B3D0000198871DB0F80480D0F8009000BF00BF2E
:10B3E0004B46424639462846B1DF0446042C01D17B
:10B3F000112422E0082C01D100241EE00B2C1CD1CA
:10B400004FF0000A09F0020010B14FF0010914E0FA
:10B4100017B9B8F1000F04D00027B8464FF0030960
:10B420000BE00A490A4A891AC908012242EA014086
:10B430002A46084903F092FD03240B2CD0D0BAF120
:10B44000000F00D10B242046BDE8FC87E8850300EF
:10B45000D8850300B46E03002DE9FF5F80464046A7
:10B4600000F0D8FA06464FF6FF70864204D143F248
:10B47000020004B0BDE8F09F4FF001094FF0000A50
:10B4800000BF4FF0000A4A46511C1FFA81F902AB77
:10B490000821304606F048F90446002C77D1039D78
:10B4A000032028602A1DA91D40462B68B2DF0446F0
:10B4B000002C4AD16A460821304606F0D3F80446EB
:10B4C0009CB1052C11D0204604F056FC07463549A6
:10B4D000354A891AC908012242EA014043463A46E0
:10B4E00032A103F047FD0320C3E7052C0BD0A88849
:10B4F00001998988884206D1AA880198811DA81DD2
:10B50000FAF7DFFF30B132460821304606F094F9F1
:10B51000044619E00821304606F07EF907460FB9C7
:10B520000B2410E0384604F027FC83461D491E4AD0
:10B53000891AC908012242EA01405B46324629497C
:10B5400003F018FD032400BF1FE00C2C02D14FF0C4
:10B55000010A02E0052C00D100240821304606F043
:10B560005BF9074687B1384604F006FC83460D496F
:10B570000D4A891AC908012242EA01405B46324657
:10B58000184903F0F7FC032400BF03E0FFE7072C92
:10B5900000D10C24BAF1000F7FF473AF00BF204636
:10B5A00067E70000E8850300D88503007064625FE8
:10B5B000706565725F646174615F7074725F676506
:10B5C0007428292072657475726E65642025732055
:10B5D000666F7220636F6E6E5F68616E646C653A51
:10B5E00020256400346E030010B50446044800882A
:10B5F0004FF6FF71884201D009F056F910BD0000E6
:10B600000A2C0020FEB5044602A80190204600F056
:10B6100001FA06466A460121304606F023F805463F
:10B620000DB10020FEBD01980078FBE72DE9F04147
:10B6300005464FF6FF761648B3DF04468CB1204628
:10B6400004F09AFB07461349134A891AC9080122D4
:10B6500042EA01403A46114903F080FC0320BDE86C
:10B66000F08100BF4FF6FF72094801882846AFDF1E
:10B67000044643F20300844204D105480088401C7C
:10B680000349088043F203008442EBD02046E6E7FA
:10B690000C2C0020E8850300D8850300E86D03002A
:10B6A00070B504460D46204600F01DF8A84201D9A9
:10B6B000022070BDA0884FF6FF71884204D0208818
:10B6C00010B1A068401C08B90120F2E70020F0E7A3
:10B6D000024613468B4204D21868401C08B1012070
:10B6E00070470020FCE701464A8801F10C0000EB9E
:10B6F0008200704710B503F099FA08B903F072FEA2
:10B7000010BD3EB504460D4620780221B1EB500F26
:10B7100001D000203EBDB4F80100ADF80800E0788B
:10B720008DF80A00A188ADF80010A0798DF802000C
:10B7300001AA69462846FBF725FC032201A902A8B5
:10B74000FAF7BFFE08B90120E4E70020E2E70000B5
:10B7500070B504460D46142C03DA2046FCF774FB42
:10B7600010B943F2020070BD04EB8400054901EBFF
:10B770004000D0F802102960C188A980007AA87121
:10B780000020F0E76C3A002030B591B005462888DB
:10B79000102801D011B030BD2C22291D06A8FAF7BF
:10B7A00065FE4FF6FF749DF81C000321B1EB500FAE
:10B7B00035D006F00FF99DF81C00400820B1012893
:10B7C00003D0022828D114E000BF09E0049800F15A
:10B7D000110107A8FBF7C0FA10B1BDF8144006E04C
:10B7E00003AA05A9072006F0BFF80028EED100BF84
:10B7F00013E008E00498411C07A8FFF782FF10B18E
:10B80000BDF8144006E003AA05A9072006F0ACF82D
:10B810000028EFD100BF00E000BF00BF00BFBDF8AF
:10B82000180000EB8000124921F81040BDF8180004
:10B8300000EB800001EB40000799C0F80210BDF852
:10B840002010C1809DF8221001724FF6FF708442D3
:10B850000CD0BDF81800ADF80600ADF80840002087
:10B860008DF8040001A8FEF76BFD00BF00BF91E753
:10B870006C3A002070B505464FF6FF70854200D146
:10B8800070BD00240EE004EB8400094931F810007B
:10B89000A84205D12046FCF7D7FA08B12046EFE7C9
:10B8A000601C84B2142CEEDB4FF6FF70E8E700005A
:10B8B0006C3A00203EB505460C4606F08BF80BE0CE
:10B8C000BDF80800A04207D02846019900F00EF804
:10B8D00010B1BDF808003EBD6A4602A9072006F077
:10B8E00043F80028ECD14FF6FF70F4E72DE9F0475C
:10B8F00004460D4604F1110605F111071022691CDA
:10B90000601CFAF7DEFD48B9601C00F0A0FC28B10D
:10B91000681C00F09CFC08B1012000E00020824679
:10B9200039463046FBF718FA804630780221B1EBF1
:10B93000500F10D030780321B1EB500F0BD0387876
:10B940000221B1EB500F06D038780321B1EB500F34
:10B9500001D0012000E000208146B8F1000F02D0A4
:10B96000B9F1000F05D1BAF1000F05D0B9F1000F00
:10B9700002D10120BDE8F0870020FBE702461088D5
:10B9800008B101207047002105E0901C405C08B11F
:10B990000120F7E7491C0829F7D30020F2E770B52A
:10B9A00005460C462846FFF7E9FF08B9002070BDA0
:10B9B00028882188884201D00020F8E70822A11CAD
:10B9C000A81CFAF77EFD08B90120F0E70020EEE799
:10B9D000142804DA00EB8002014B23F812107047A0
:10B9E0006C3A002070B506463046FFF743FF044628
:10B9F000304605F043FE054645B9142C06DA4FF6ED
:10BA0000FF7004EB8401024A22F81100284670BD41
:10BA10006C3A002010B50446142C03DA2046FCF7DB
:10BA200013FA10B94FF6FF7010BD04EB8400024901
:10BA300031F81000F8E700006C3A00203EB50446EB
:10BA400005F0C8FF10E0019800F146012046FFF71D
:10BA5000A6FF30B9019800F12A012046FFF79FFFA9
:10BA600010B1BDF808003EBD6A4602A9072005F0E6
:10BA70007BFF0028E7D14FF6FF70F4E770B504466E
:10BA80000D4609486060094801F00BFC50B904F00C
:10BA90009DF8064908741C238C2205490548006856
:10BAA00001F031FB002070BD30690300E83F002049
:10BAB0004C3F00203C6903002DE9F04106460C464E
:10BAC00048F20E6836B10020404948604FF4064005
:10BAD000BDE8F081207930B101280AD0022831D0A8
