:020000040002F8
:10600000A0830020DD630200E5630200E763020075
:10601000E9630200EB630200ED6302000000000090
:10602000000000000000000000000000EF6302001C
:10603000F163020000000000F3630200F563020058
:1060400065660200F7630200296A0200F763020036
:10605000F7630200F7630200A9650200F76302001C
:10606000F7630200116A0200F7630200F76302009F
:10607000F7630200F7630200F7630200F7630200B0
:10608000F7630200B9660200F7630200F7630200DB
:10609000F7630200F763020071670200F763020012
:1060A000F7630200F7630200F7630200F763020080
:1060B000F7630200F7630200000000000000000028
:1060C000F7630200F7630200F7630200F763020060
:1060D000D1660200F7630200F763020000000000CF
:1060E00000000000000000000000000000000000B0
:1060F00000000000000000000000000000000000A0
:10610000000000000000000000000000000000008F
:10611000000000000000000000000000000000007F
:10612000000000000000000000000000000000006F
:10613000000000000000000000000000000000005F
:10614000000000000000000000000000000000004F
:10615000000000000000000000000000000000003F
:10616000000000000000000000000000000000002F
:10617000000000000000000000000000000000001F
:10618000000000000000000000000000000000000F
:1061900000000000000000000000000000000000FF
:1061A00000000000000000000000000000000000EF
:1061B00000000000000000000000000000000000DF
:1061C00000000000000000000000000000000000CF
:1061D00000000000000000000000000000000000BF
:1061E00000000000000000000000000000000000AF
:1061F000000000000000000000000000000000009F
:10620000DFF80CD000F092F900480047FDCB020007
:10621000A083002000B583B002900091019244F267
:10622000010071466A4600F07FFF03B000BD000028
:1062300030B450E8012F93B2C48923448489A34227
:1062400028BF1B1B0489A34202BFBFF32F8F00206E
:1062500007E0C3EA020340E80134002CE9D14FF023
:1062600001000A6030BC704750E8012FC2EA0242C8
:1062700040E801210029F7D1704730B450E8022FDF
:106280001FFAA2F3C488A34202BFBFF32F8F0020DE
:106290000DE0C48923448489A34228BF1B1BC2EAA2
:1062A000034340E80234002CE8D14FF001000A60BB
:1062B00030BC704750E8022FC2EA224240E8022177
:1062C0000029F7D17047034653E8022FD988B2EB73
:1062D000324F4FF0000017BF92B241EA014142EA4B
:1062E000014104E05A68B2EB324F08BF012043E895
:1062F0000212002AE8D1704730B4044654E8000F77
:106300000D4644E80053002BF8D1156030BC7047AF
:1063100030B4044654E8000F40EA010544E8005355
:10632000002BF7D1156030BC704730B4044654E8F8
:10633000000F00EA010544E80053002BF7D1156077
:1063400030BC704730B4044654E8000F80EA0105C1
:1063500044E80053002BF7D1156030BC704730B4CF
:10636000044654E8000F00EB010544E80053002BFD
:10637000F7D1156030BC704730B4044654E8000FC4
:10638000A0EB010544E80053002BF7D1156030BCA9
:10639000704770B404464FF0000054E8006F0D6879
:1063A000AE4207BF44E80023012044E800630E60CA
:1063B000002B1CBF0020F0E770BC704730B40446CF
:1063C00054E8000F88422CBF451A054644E80053A4
:1063D000002BF5D1156030BC70470000064880479F
:1063E00006480047FEE7FEE7FEE7FEE7FEE7FEE7BA
:1063F000FEE7FEE7FEE7FEE78967020001620200B2
:106400002DE9F05F0546002092469B4688460646E9
:10641000814640241BE0284641464746224600F07C
:1064200074F853465A46C01A914110D31146184683
:10643000224600F016F82D1A67EB01084F46224657
:106440000120002100F00DF817EB00094E41201E3D
:10645000A4F10104DFDC484631462A464346BDE844
:10646000F09F202A04DB203A00FA02F10020704756
:106470009140C2F1200320FA03F319439040704782
:1064800000487047B473030040EA01039B0703D040
:1064900009E008C9121F08C0042AFAD203E011F863
:1064A000013B00F8013B521EF9D27047D2B201E025
:1064B00000F8012B491EFBD270470022F6E710B509
:1064C00013460A4604461946FFF7F0FF204610BD62
:1064D000421C10F8011B0029FBD1801A704730B50F
:1064E00004460020034600E05B1C934203D2E05CBC
:1064F000CD5C401BF8D030BD034611F8012B00F8ED
:10650000012B002AF9D118467047202A04DB203AD3
:1065100021FA02F00021704721FA02F3D040C2F1C3
:10652000200291400843194670470000064C074D71
:1065300006E0E06840F0010394E807009847103453
:10654000AC42F6D3FFF760FEA88E0300C88E0300AE
:1065500070B58C1810F8015B15F0070301D110F825
:10656000013B2A1106D110F8012B03E010F8016B52
:1065700001F8016B5B1EF9D12B0705D40023521ED5
:106580000DD401F8013BFAE710F8013BCB1A921C3D
:1065900003E013F8015B01F8015B521EF9D5A1423B
:1065A000D8D3002070BD00002DE9F84F0026002050
:1065B00000904FF480770125002410E0384607F062
:1065C000F7FE40B100BF25480068284018B13846A2
:1065D00007F0E0FE2E436D00381D87B2641C082CC6
:1065E000ECD34FF4BE7007F0E3FE50B14FF4BE7031
:1065F00007F0D0FE46F000466A460121002007F071
:106600006FFEF0B210B3012500241DE005EA06007C
:10661000C0B100BF124850F82400C0F304208146E6
:1066200000BF0F4850F82400C0F3014082462046C6
:1066300002F090FF8046B8F1000F02D05146484664
:10664000C04700BF6D00641C082CDFD306F000407B
:1066500010B168460DF00EF8BDE8F88F04630040F5
:106660001065004010B54FF4807007F088F980B1D4
:106670004FF4807007F08CF9012007F093F90D4872
:10668000407930B901200B49487108460168002063
:1066900088474FF4827007F072F950B14FF482705E
:1066A00007F076F9022007F07DF902480168012021
:1066B000884710BD482E002010B5034A1068034AD1
:1066C0001168884710BD0000E42E0020E02E002055
:1066D00010B504220021024805F0B6FC10BD0000F0
:1066E0000040024010B500F0A7F910BD2DE9F047B9
:1066F000074688461646C24607EB47011B4800EB93
:10670000C109D9F8140020B1012811D0022826D1DE
:106710001EE0484600F0C8F90546B54201D2002403
:1067200005E0344632465146484600F004FA18E087
:10673000484600F0B9F90546B54201D2284600E0C6
:106740003046044622465146484600F0F4F908E037
:1067500032465146484600F0B5F9044601E00024AF
:1067600000BF00BF2046BDE8F0870000EC600020BD
:1067700010B509F051FB10BD01480249086070478F
:106780000090D003A02F002010B506F085FC28B1A2
:1067900090480088C0F304208F49086006F0D8FCB8
:1067A00010B18E488E49486706F034FD30B18948F3
:1067B000E0380068C0F342308A49086006F058FDAE
:1067C00028B18948006820F080708749086006F089
:1067D00071FD48B10020854908604FF08041C1F843
:1067E00010018049091F086006F092FD18B10320CE
:1067F0007C496431086006F0ADFD68B105207C4934
:10680000086001207A497831086000207849083111
:1068100008603F20091F086006F0BEFD002855D023
:106820006C48E0300068734908606A48E4300068EA
:10683000091D08606748E8300068091D0860654860
:10684000EC300068091D08606248F0300068091DDE
:1068500008606048F4300068091D08605D48F83041
:1068600000686449203108605A48FC300068091DFE
:10687000086061480068091D08605F48001D0068E5
:10688000091D08605C4808300068091D08605A4806
:106890000C300068091D08605748103000685549E1
:1068A00040310860544814300068091D086052489F
:1068B00018300068091D08604F481C300068091D29
:1068C00008604D4820300068091D086006F0B6FBDE
:1068D00030B14048CC38006800F04F0047490860AC
:1068E00006F008FC40B14648006800F0010018B10D
:1068F0006FF001004249086006F04CFC28B14148A5
:10690000006840F480603F49086037487438006888
:1069100040F4700034497439086000BF00BF00BF04
:10692000BFF34F8F00BF00BF00BF00BF00BF00BF5D
:10693000BFF36F8F00BF00BF00BF00BF06F04AFC6F
:1069400020B13148006827491C31086000BF2E483B
:106950000838006800F0004028B92B48001F006884
:1069600000F0004090B301200AF062FA1520264999
:10697000083908600AF066FA15214FF01020C0F8B7
:1069800004120AF05FFA00200AF052FA00BF00BFBA
:1069900000BF00BF00BFBFF34F8F00BF00BF00BFED
:1069A0001148F038006800F4E06018490843001D01
:1069B0000D49F039086000BF00BF00BFBFF34F8F23
:1069C00000BF00BF00BF00BF00BFFDE7FFE7FFF74C
:1069D000D3FE10BD24030010403501400DF0ADBAC8
:1069E00000C007403C050040FCED00E00C01004009
:1069F0001056004020C5004024040010E40E004062
:106A0000000400403C170040081200100000FA0586
:106A100010B504220249034805F072FB10BD0000C6
:106A2000A05800200090004010B502490868804737
:106A300010BD0000502E002010B5124C0220206125
:106A4000606111A0A0611349E1614FF400712162FE
:106A50000021A1626162E1620BA0A0640E49E164C1
:106A6000102121650021A1656165E1650BA1E01D93
:106A7000FFF742FD0AA12046FFF73EFD2020A0714E
:106A800010BD0000D46000205465726D696E616CA9
:106A9000000000004C6100204C6300205254540060
:106AA000534547474552000010B501460A69CB6877
:106AB0009A4204D88C68641EE41AA01801E0D41A23
:106AC000601E10BD2DE9F0470446894617464FF079
:106AD000000AE56800BFD4F81080A84503D9A8EBE8
:106AE0000500461E04E0A5EB0800401CA1680E1A34
:106AF000A068401BB04201D9304601E0A068401BAD
:106B00000646BE4201D2304600E03846064661687D
:106B1000481932464946FFF7B7FCB244B144BF1B9F
:106B20003544A068A84200D10025E560002FD2D1ED
:106B30005046BDE8F0872DE9F047044689461546E2
:106B4000E668A068871BAF4208D9616888192A46A1
:106B50004946FFF799FC7019E06010E0B84661689B
:106B6000881942464946FFF78FFCA5EB070809EB59
:106B7000070142466068FFF787FCC4F80C80BDE857
:106B8000F08702E008C8121F08C1002AFAD1704736
:106B90007047002001E001C1121F002AFBD170479D
:106BA0000146202908DA012088400A4A104008B12D
:106BB000012070470020FCE7402909DAA1F12000FC
:106BC000012202FA00F008B10120F2E70020F0E70C
:106BD0000120EEE7FC06FFBD00BFEFF31081084681
:106BE00072B67047F8B505460E46D6B969462846CE
:106BF0000BF02EFD044643F202018C420AD000BF86
:106C0000274637B100BF3B4AB2213846FFF702FBA7
:106C100000BF00BF9DF80000C0F3400000B1F8BD08
:106C200000BF002128460BF025FD0446002C5ED055
:106C3000112C5CD00D2C21D12F49304A891AC9085A
:106C4000022242EA01402A462D4908F079FA13212E
:106C5000284676DF0446002C49D0204609F0ECF99E
:106C600007462549254A891AC908022242EA0140F5
:106C70002B463A4623A108F06FFA38E00B2C0BD1D3
:106C80001D491E4A891AC908022242EA01402A46C1
:106C90002A4908F055FA2AE043F2020084420BD157
:106CA0001549164A891AC908022242EA01402A46B1
:106CB000234908F045FA1AE0204609F0BDF90746D5
:106CC0000D490E4A891AC908012242EA01402B46A1
:106CD0003A461CA108F040FA00BF274637B100BF72
:106CE000044AE1213846FFF795FA00BF00BF00BF14
:106CF00095E70000247F0300108F0300D88E030067
:106D0000C47A030073645F626C655F6761705F647F
:106D10006973636F6E6E656374282920726574757C
:106D2000726E6564202573206F6E20636F6E6E5FD8
:106D300068616E646C652025642E0000847B03000E
:106D4000387B0300417373657274696E672E20701F
:106D50006D5F636F6E6E5F73656375726528292062
:106D600072657475726E6564202573206F6E206382
:106D70006F6E6E5F68616E646C652025642E000026
:106D800070B505460C4605B10CB9002070BD2878D9
:106D900040082178B0EB510F01D00020F6E7062221
:106DA000611C681CFFF79BFB08B90120EEE700207F
:106DB000ECE7014601F0030008B90120704700200C
:106DC000FCE7024650680068401E084008B90120F0
:106DD00070470020FCE70246002104E0505C08B147
:106DE00001207047491C0629F8D30020F9E710B5A7
:106DF0000346D868884206D88818401E1C69A042FD
:106E000001D8012010BD0020FCE7000010B50446A9
:106E10006CB10848C068A04209D806480069A04281
:106E200005D3204605F083FB08B1012010BD0020EA
:106E3000FCE70000A42F002070B504460D4604F2C4
:106E40002740FFF7C8FF0646012D06D0022D0DD0C2
:106E5000032D11D0042D19D113E0A07928B194F895
:106E6000240010B90EB1012070BD00BFE07910B14F
:106E70000EB10220F8E700BF207A08B10320F3E743
:106E800000BF607A08B10420EEE700BF0020EBE706
:106E90000146481C052290FBF2F302FB1300C0B22E
:106EA0007047014691F82420012A01D1EE2000E02C
:106EB0001F20704710B501220221002001F0A8FF19
:106EC000044600BF1CB1072C01D0204610BD00BFF6
:106ED00007220221012001F09BFF044600BF1CB1E4
:106EE000072C01D02046F1E700BF0A220021084606
:106EF00001F08EFF044600BF1CB1072C01D02046D4
:106F0000E4E700BF0020E1E730B5ABB0AC21684654
:106F1000FFF7D3FA02208DF8000000208DF8020060
:106F200006208DF803000121ADF84C101049149192
:106F300001218DF87C1040212291002123910D48E0
:106F4000299069460C4800F036FE044600BF2546ED
:106F50003DB100BF09A240F222312846FFF75AF99D
:106F600000BF00BF0121044800F022FE2BB030BD5D
:106F7000502C0020550E03005C3300202E2E5C2E7A
:106F80002E5C2E2E5C6D61696E2E630070B504461A
:106F9000012C02D102F0BAFE11E00321084800F0F2
:106FA000D1FE054600BF2E463EB100BF05A24FF4FC
:106FB00068713046FFF72EF900BF00BF00BF70BDFB
:106FC0005C3300202E2E5C2E2E5C2E2E5C6D6169B3
:106FD0006E2E630070B58CB004460D461646002038
:106FE00005E0C0F10F01615C0DF80010401C102895
:106FF000F7D30D2104A8FFF760FA002005E02A5C12
:10700000C0F10F0304A9CA54401C0328F7D36846F3
:1070100046DF002005E0C0F10F0208A9895C315469
:10702000401C0328F7D30CB070BD10B504460220F5
:1070300001F088FD10BD000010B50446024801783B
:10704000204601F00FF810BD202E002010B50024BE
:1070500007E00749096811F83400012109F0BAF87E
:10706000641C044800788442F3D3002010BD000063
:10707000682E00206C2E00202DE9F84306460D46B0
:1070800017460A2F02D20720BDE8F88309F0E6F977
:1070900038B909F079F9044600BF204600B1F3E79A
:1070A00000BF18480660184805701848076010218E
:1070B0001748FFF702FA0021164A1160516015E0E7
:1070C00006EBC50814480068009098F802008DF897
:1070D000010098F80000114A694609F0D1F8044609
:1070E00000BF204600B1CFE700BF00BF281EA5F1BA
:1070F0000101CDB2E4D10A4A00210A4800F06AF940
:10710000C2E70000682E00206C2E0020702E0020A8
:10711000AC580020982E0020906F0300E9B50200C3
:10712000C19D02008C6F03002DE9FE4307460E4609
:10713000144672B600BF08F003F900BF00BF07F0A5
:1071400067FE0028FBD100BF00BF012F0CD06FF4F9
:107150008050384498B1B0F5405F2CD06FF4405166
:107160000844002847D115E03149324A891AC90834
:10717000012242EA014030A107F0D8FF47E02C4944
:107180002C4A891AC908012242EA014032A107F0BB
:10719000CDFF3CE025462649DFF898C0A1EB0C0165
:1071A000C9084FF0010C4CEA014034A1D5E9003286
:1071B00007F0D2FF2BE02546A86808F03DFF804687
:1071C000D5E900108DE8430019491A4BC91AC908BE
:1071D000012343EA014043462FA1AA6807F0F6FFC6
:1071E0001349144A891AC908012242EA014034A10C
:1071F00007F09CFF0BE00E490E4A891AC9080122CC
:1072000042EA0140324633A107F09AFF00BF00BFB7
:1072100000BF3648006800F0010000B100BE00BFAA
:1072200022463146384600F063F8BDE8FE83000090
:10723000B08F0300D88E0300534F4654444556493F
:1072400043453A20415353455254494F4E204641FD
:10725000494C454400000000534F465444455649AC
:1072600043453A20494E56414C4944204D454D4FE7
:107270005259204143434553530000004153534565
:107280005254494F4E204641494C45442061742098
:1072900025733A25750000004552524F522025753E
:1072A000205B25735D2061742025733A25750D0AD6
:1072B00050432061743A203078253038780000003F
:1072C000456E64206F66206572726F722072657001
:1072D0006F727400554E4B4E4F574E204641554CE1
:1072E000542061742030782530385800F0ED00E0EB
:1072F00018B5012300939DF800301E4B18605960AB
:107300009A606FF48043034463B1012B19D1194B88
:10731000DA60DB681B68174CA3612346DB685B6897
:10732000E3610EE0134B1A611B699B68114C6361AA
:1073300023461B691B68A36123461B695B68E361E5
:1073400000BF00BF0B4B1B680A4B5B68094B9B6877
:10735000084BDB68074B1B69064B5B69054B9B6958
:10736000044BDB6972B600BF9DF80030002BFBD1E7
:1073700062B618BDBC58002070B504460D462046C4
:1073800003F09CFB28B12946204603F08BFB00202C
:1073900070BD0520FCE770B504460D46204603F09D
:1073A0008DFBA188884205D82946204603F094FB2E
:1073B000002070BD0420FCE70246501A20F07F40F8
:1073C0007047000010B5024802F08EFD10BD0000AD
:1073D000A02E002030B503460C460AB9072030BD68
:1073E00019684FF0FF358D60CD604A61012C01D1E5
:1073F000012000E0002008610020F0E72DE9F047BF
:1074000005462C46FFF7DEFF0746E169086A00F0F3
:10741000E5F84FEA5008B8F1050F01D9404600E001
:1074200005208046E06990F8270008B9BDE8F0879C
:10743000A2694C2150680122425000BFA0694068F7
:10744000D0F84C65216922460868414600F05CF896
:1074500060690068B04207D0606906606069476093
:1074600001206169087216E0606941683846FFF7DB
:10747000A3FF81466069007A60B1484600F096F843
:10748000E169096A884205D90020616908722046CD
:1074900007F0ECF900BF00BFC8E7000038B513489B
:1074A000006800900823582211491248006805F02E
:1074B000ACFF04460CB1204638BD0F4A69460F4860
:1074C00002F018FD04460CB12046F5E701210B48F7
:1074D00002F0B6FD01230A4A1946084802F0D6FC1C
:1074E0000120084908702046E6E70000A46F030069
:1074F000DC580020946F030093430300A02E00206B
:10750000FFFF7F00AC2E00202DE9F84306460D4614
:107510009046344600200090684600F0A5F84FF0F1
:10752000FF33D4E9021059405840014308D104F018
:107530003DF8401941F10001C4E90201012700E0D2
:1075400000279DF8000000F095F817B90020BDE86D
:10755000F883C4F81880206900B125612146002015
:107560000EF042FDF3E7F8B50446254600200090F2
:10757000684600F079F84FF0FF33D5E90210594022
:107580005840014301D1002604E04FF0FF31A960CB
:10759000E96001269DF8000000F06CF80EB90020AB
:1075A000F8BD294601200EF01FFDF9E72DE9F04155
:1075B00004460948A4FB001202230020A1FB035C3F
:1075C00002FB03C201FB00219A0303462846FEF793
:1075D00017FFBDE8F081000040420F0070B504467F
:1075E0004FF48040A0FB04500146034A0023284684
:1075F000FEF706FF70BD000040420F002DE9F0418C
:10760000054629461448FFF7C6FE064606BB134C3E
:10761000002720781249085C20B1201D09F07CFB6E
:10762000074608E020780E49085C20B904F10C00F8
:1076300009F000FB074600BF57B90A490648FFF7A3
:107640009BFE28B901220749044806F0F3F90646D3
:107650003046BDE8F081000054590020C42E0020BF
:10766000442E0020DC2E002010B5044620460DF0EC
:107670001FF810BD70B5044625460E488068B0B1AD
:10768000ADB9FFF7A9FA06460A4800680A4908603A
:10769000084840684FF0E021C1F804010020054986
:1076A00088601EB900BF62B600BF00BF00BF00BF48
:1076B00070BD00006459002000E100E0F8B5054607
:1076C0000C4617462088001DB84201D90C20F8BD91
:1076D000684679DF064600BF304600B1F7E700BFD5
:1076E0000320218868542088401C2080192021888C
:1076F00068542088401C208020884119BDF8000073
:107700000EF0FEFD2188084420800020DFE770B5E0
:1077100004460D46204605F0E9F870BD0146480CC8
:10772000400408B9012070470020FCE710B504466A
:10773000637903F003022179208805F095F810BDE4
:1077400010B50446207918B9204600F007F803E088
:107750002046FFF7EBFF00BF00BF10BD2DE9FE4341
:1077600007463E884FF0000800225948017830460D
:1077700000F08EFC7879C0F3800028B900213846EB
:107780000AF088F9BDE8FE8306F5807188B201AB86
:10779000012207210AF09EFA0546C5B1284608F0E5
:1077A0004BFC81464B494C4A891AC908012242EADE
:1077B000014033464A46494907F0CEFC2946304647
:1077C0000DF0C0FA002138460AF064F9DAE73046D5
:1077D00004F084FA04464FF6FF718C421BD10298E4
:1077E00004F0CCF904464FF6FF70844213D02146D2
:1077F000304604F051FA3046FFF71EFC58B93046C7
:107800000DF034FA3046FFF717FC20B90021384656
:107810000AF040F9B6E74FF6FF7084421FD10AF034
:107820006FFC04464FF6FF70844212D129492A4A60
:10783000891AC908012242EA014029A107F076FC11
:10784000042130460DF07EFA002138460AF022F974
:1078500098E72146304604F01FFA4FF0010806F57C
:10786000807188B2224607210AF0BCFA054625B984
:10787000012138460AF00EF928E0862D07D130465E
:107880000DF026FA012138460AF004F91EE02846D8
:1078900008F0D2FB81460F490F4A891AC908012214
:1078A00042EA014033464A461A49009407F064FC14
:1078B000294630460DF046FA002138460AF0EAF82B
:1078C000B8F1000F02D0204604F0F0F900BF59E7EC
:1078D0001D2E0020188F0300D88E0300E4810300C2
:1078E000436F756C64206E6F7420616C6C6F6361A4
:1078F0007465206E657720706565725F69642066C7
:107900006F7220696E636F6D696E6720626F6E645F
:107910002E00000000830300002114E00C48D0F882
:107920001024012308E000BFD0680079884201D10B
:10793000002303E0D0680268002AF4D100BF0BB135
:1079400008467047491C0A29E8DB4FF0FF30F8E78A
:10795000B45C00202DE9F04104460F46154615B9E8
:107960000E20BDE8F0810020286000BF0CB90E2079
:10797000F7E700BF00BF206808B90E20F1E700BF9D
:1079800000BFE088C11700EB91718910A0EB810165
:1079900009B10720E5E700BF384600F0DBFAC6B2C0
:1079A000142E01D10520DCE72079B04201DC04204F
:1079B000D7E7E188206806FB010028600020D0E7B7
:1079C0002DE9FC41054688461646002437880020EC
:1079D000308095F82D0058B13A463146404600F0C7
:1079E00009FC044600BF204608B1BDE8FC8100BF89
:1079F000A87850B13A4631464046FFF75FFE04464C
:107A000000BF204600B1F0E700BFE87860B1E97838
:107A100048B23B463246414603F0B4F8044600BF44
:107A2000204600B1E1E700BF686868B1696891F974
:107A300000003B46324641460EF055FB044600BF6F
:107A4000204600B1D1E700BF288900280EDD43465B
:107A50000622022105F10800CDE900670EF057FD6E
:107A6000044600BF204600B1BFE700BF288A0028B7
:107A70000EDD43460722032105F11000CDE9006722
:107A80000EF045FD044600BF204600B1ADE700BF43
:107A9000288B00280EDD43461522142105F118001D
:107AA000CDE900670EF033FD044600BF204600B16B
:107AB0009BE700BF286A58B13B4632464146286AD8
:107AC00001F05FFF044600BF204600B18DE700BF14
:107AD000686A58B13B4632464146686A05F016F975
:107AE000044600BF204600B17FE700BF95F82C0098
:107AF00000280BDD3B463246414628460DF0D6FABB
:107B0000044600BF204600B16FE700BF287858B197
:107B10003B4632464146284605F0E7F9044600BF99
:107B2000204600B161E700BF20465EE7F8B5044695
:107B30000E461546002000902B466A4631462046E8
:107B400000F008F807460FB90020F8BDBDF80000A6
:107B50002044FAE7F0B504460D461E4604B10AB9C2
:107B60000020F0BD002103E0605C401C084481B2AD
:107B7000481CA84206DA10888842F5DC481C205CC4
:107B8000B042F1D1A94201DB0020EAE7881C87B2AC
:107B9000605C10B1605C401E00E0002083B213B155
:107BA000F818A84201DD0020DBE717801846D8E767
:107BB00080F83010704770B504460D4605B10CB919
:107BC0000E2070BD05F1780001F05BFE08B90720BA
:107BD000F7E70020A0702C2205F17801201DFEF7A8
:107BE00053FC002084F83000D5F8A4006063D5F879
:107BF000A800A0634FF6FF70A4F8240404F5826087
:107C0000C4F82004002140F22C40C4F82614A4F843
:107C10002A140155207810B9FF2084F8540004F18B
:107C20005500C4F810042046FFF73BF940F2144118
:107C3000085304F2144204F155012846FFF7C0FE30
:107C4000064600BF304600B1BBE700BF04F231205A
:107C50004FF4836108512046FFF723F9A4F81C0470
:107C60004FF48360015904F21C4205F13C00FFF718
:107C7000A7FE064600BF304600B1A2E700BF0121C3
:107C800051200155208B81B248200153012084F8F6
:107C90003C0000212164502001556169616404F1B8
:107CA0003C02002104F1540072DF064600BF30465A
:107CB00000B186E700BF01202070304681E770B533
:107CC00004460D462E462088102804D0112807D0DF
:107CD00026280FD109E02146304609F0A9F90AE02B
:107CE0002146304609F0B6FA05E02146304609F053
:107CF0004CFC00E000BF00BF70BD70B5044694F8B6
:107D0000540074DF012084F82E04002084F830042D
:107D10000021502001550621204602F04EFF054665
:107D200000BF284600B170BD00BFA178204600F01A
:107D300009F8054625B1A06B10B12846A16B88470C
:107D40000020F0E770B504460E46207808B90820F8
:107D500070BDA670002140F22C40C4F82614A4F88F
:107D60002A140155A07910B1A078012809D0E07932
:107D700010B1A078012804D0E07970B1A078022871
:107D80000BD1606B30B1012084F82D040820616BA9
:107D9000884702E0002084F82D0431462046FFF792
:107DA0004BF8A070606BA0B1A078032802D0A07837
:107DB00004280ED1607960B194F82E0448B90020EF
:107DC00084F83004012084F82F040720616B884771
:107DD00002E0002084F82F04182104F13C00FEF793
:107DE0006CFB012084F83C0004F12C000AF072FBCB
:107DF00020B194F82C105120015502E001215120AE
:107E0000015594F8240060B104F128000AF062FBE7
:107E100020B194F828105220015502E0012152208F
:107E20000155002150200155A078052824D2DFE813
:107E300000F01F030A11180004F13C0120460DF068
:107E4000D5F9054619E004F13C0120460DF0B6F9DC
:107E5000054612E004F13C0120460DF0D9F9054633
:107E60000BE004F13C0120460DF000FA054604E069
:107E7000002084F8310000E000BF00BFA07898B176
:107E800004F13C0204F15400D4F8201472DF0546DA
:107E90000DB128465CE794F8301094F8540073DF75
:107EA00005460DB1284653E7606B18B194F83100D0
:107EB000616B884700204BE72DE9F041044600BF85
:107EC00014B90E20BDE8F08100BF1C2221461C48D9
:107ED000FEF7DAFA1B481A490860206860B120688A
:107EE0007ADF05460DB12846ECE7164821680A6896
:107EF00002604968416005E012487BDF05460DB12C
:107F00002846DFE7002617E006EB86000E4901EB66
:107F1000800700BF4FF6FF70388000BF0B4800EBB2
:107F2000461078600A4A0021381DFFF753FA0546CB
:107F30000DB10320C6E7761C002EE5D00020C1E776
:107F400064540020182D002050540020305400208C
:107F50001D64030010B50446204600F0AFF808B1D8
:107F6000204610BD1420FCE710B50446204600F062
:107F7000A5F820B12146034805F0E9FA10BD00201C
:107F8000FCE700009054002070B504460D461646EC
:107F900020460EF08DFA08B9002070BD034951F853
:107FA00024003246294602F07DFEF6E79C5400206C
:107FB00010B50446204600F081F820B12146034860
:107FC00005F0C5FA10BD0020FCE700009854002021
:107FD00010B50446204600F071F820B12146034850
:107FE00005F0B5FA10BD0020FCE700009454002015
:107FF00070B504460025204600F060F850B12146D7
:10800000054805F0A4FA06460EB1022000E0012062
:10801000054600BF284670BD8C54002070B504464C
:108020000025204600F04AF850B12146054805F0E9
:108030008EFA06460EB1022000E00120054600BF80
:10804000284670BD8854002010B51821044805F05A
:108050004EFA0446182C00D110BDE0B2FCE7000037
:108060008054002070B505460C4620460EF020FADC
:1080700050B1284600F022F830B1044901EB8400E9
:10808000294605F064FA70BD0020FCE79C540020EE
:1080900070B505460C46164620460EF009FA50B15A
:1080A000284600F00BF830B1034901EB840032465A
:1080B000294602F058FD70BD9C54002010B50446BE
:1080C000142C01DB002010BD2146024805F03FFAC8
:1080D000F9E700008454002038B5002000903B48A8
:1080E000007840B33A4880880090394801683948A0
:1080F00003886A46384800F0B1FB0446082C0FD0CC
:10810000132C0DD0052C0BD000BF25463DB100BF70
:1081100032A240F2C2312846FEF77CF800BF00BF11
:108120004CB932480068BDF8001008442F49086077
:108130000020264908703FE0002225492C4807F01E
:10814000C7FA044600BF25463DB100BF23A240F256
:10815000CF312846FEF75EF800BF00BF1C4880887C
:1081600000901B4801681B4803886A461A4800F0C3
:1081700075FB0446082C0FD0132C0DD0052C0BD00A
:1081800000BF25463DB100BF14A240F2D7312846BA
:10819000FEF740F800BF00BF54B914480068BDF8AE
:1081A000001008441149086000200849087003E0E5
:1081B00001200649087007E00D4807F0D7FA18B902
:1081C000024800780028B7D000BF38BD892C0020B5
:1081D000802C00204C2C0020302C00202E2E5C2ED9
:1081E0002E5C2E2E5C6D61696E2E6300782C002053
:1081F0000C9003002DE9FC4105460C4617462088EB
:108200000930B84202D90C20BDE8FC8168466DDF18
:10821000064600BF304600B1F6E700BF08202188BF
:1082200068542088401C20801B20218868542088A6
:10823000401C208020882844DDF801100160BDF832
:10824000051081802088801D20809DF80000400856
:1082500018B900202188685402E001202188685460
:108260002088401C20800020CEE7000010B54FF091
:10827000FF3100203DDF044600BF204600B110BDA5
:1082800000BFB12100203CDF044600BF204600B102
:10829000F5E700BF0448416901208847022007F044
:1082A000E5F90020EBE700005C63002010B505480D
:1082B0000068416900208847FFF7D8FF0446204640
:1082C00010BD00009C2F002070B504460D4600BF75
:1082D00004B970BD00BF2088102806D0112808D02E
:1082E00051280AD0532810D10BE0204608F09AFEFE
:1082F0000CE0204608F0A0FF08E0204609F0EEF868
:1083000004E0204609F060F800E000BF00BF00BFB5
:10831000DFE7000070B504460426207B012802D068
:10832000022822D109E001F033FF05460DB90126EC
:1083300002E0112D00D1062619E0607B142801DC33
:10834000607B08B905260FE0627B04F10E0112483C
:10835000FEF79AF8607B1049091F886108460CF007
:10836000B3FF054605B9012601E0022600BF00BFA4
:10837000012E0FD0207B314600F058F8054625B17C
:10838000064800684169032088470448006841693D
:108390000220884770BD0000886300209C2F0020C9
:1083A00070B505460E4600BF1E48006820B11D4846
:1083B000406808B1012000E0002000B970BD00BF96
:1083C000184800F10801426828469047044600BF5B
:1083D000082C24D07CB90020134909684876012173
:1083E000022000F023F80446CCB10F480068416930
:1083F0000320884713E000200B49096848760621CE
:10840000022000F013F8044624B1074800684169CF
:10841000032088470448006841690220884700BF5C
:10842000CCE70000786300209C2F0020F0B587B0D7
:1084300004460D460327002001900290039004900B
:108440000320069020208DF814008DF815408DF83B
:1084500016500E48C088ADF8040002208DF80600C2
:108460000020ADF8080006A8039005A8049007496D
:10847000888801A9AEDF064626B9BDF81800032892
:1084800000D00C26304607B0F0BD00005C63002031
:10849000F8B505460F462888212862D006DC10284A
:1084A0000BD0112839D013287ED16DE03B287CD029
:1084B00052287BD05628F7D1A3E05C495C4A891A40
:1084C000C908032242EA01405AA106F02FFE072004
:1084D00000F0CCFC044600BF26463EB100BF58A2C7
:1084E00040F219213046FDF795FE00BF00BFA88875
:1084F0005749088008460188564805F0D9F90446CE
:1085000000BF26463EB100BF4DA24FF40771304672
:10851000FDF780FE00BF00BF85E04449444A891A48
:10852000C908032242EA01404BA106F0FFFD4FF6C5
:10853000FF704749088000BF4B480068FFF713F8F9
:1085400006463EB100BF3EA240F223213046FDF771
:1085500061FE00BF00BF0020444908604449086034
:1085600061E000200090A88869468FDF044600BFC4
:1085700026463EB100BF32A240F231213046FDF71F
:1085800049FE00BF00BF4EE000231A468521304857
:1085900000887FDF044600BF26465EB100BF28A2E8
:1085A00040F23721304602E03CE019E004E0FDF7FC
:1085B00031FE00BF00BF36E000231A4619462448AA
:1085C0000088B1DF044600BF26463EB100BF1CA2B2
:1085D00040F23D213046FDF71DFE00BF00BF22E006
:1085E000A888132176DF044600BF26463EB100BFAF
:1085F00013A24FF411713046FDF70CFE00BF00BF0F
:1086000011E0A888132176DF044600BF26463EB15C
:1086100000BF0BA240F24B213046FDF7FBFD00BF2F
:1086200000BF00E000BF00BFF8BD0000B08F030036
:10863000D88E0300436F6E6E65637465640000003E
:108640002E2E5C2E2E5C2E2E5C6D61696E2E6300CC
:108650004C2C002050330020446973636F6E6E65AC
:1086600063746564000000000C6D0300782C00202A
:108670007C2C002070B505460E462888102802D0B4
:1086800011282CD115E01748006860B901F07AFA7A
:10869000044600BF34B11448006818B1204612499E
:1086A0000968884700BF0F480068401C0D490860F2
:1086B00016E00C480068401E0A4908600846006839
:1086C00060B9FEF7F7FB044600BF34B10648006806
:1086D00018B1204604490968884700BF00E000BF80
:1086E00000BF70BD142D0020102D002070B5044671
:1086F0000D462088102806D0112808D012280ED048
:10870000502810D107E0204608F01AFC0CE0204663
:1087100008F078FD08E0204608F068FF04E02046F5
:1087200008F0F6FB00E000BF00BF70BD2DE9F0418E
:1087300004460F46A6882088102806D0112819D094
:1087400019283FD01A284AD118E00BF07DFD304699
:108750000BF0EEFB30B900BF22A2F0210420FDF7A0
:1087600059FD06E0E07B022803D131462C4804F095
:10877000FDFE34E030460BF08BFD30E0207A050939
:10878000042D01DB012000E0002002463146244890
:108790000C3002F0E8F9032D01DB012000E000209D
:1087A000024631461E48083002F0DDF9022D01DB99
:1087B000012000E00020024631461948001D02F069
:1087C000D2F90CE0207A48B9607AC0F3C0052A4695
:1087D000314613480C3002F0C6F900BF00BF00BF9D
:1087E000BDE8F0812E2E5C2E2E5C2E2E5C2E2E5C93
:1087F0002E2E5C2E2E5C636F6D706F6E656E7473C3
:108800005C626C655C636F6D6D6F6E5C626C655F06
:10881000636F6E6E5F73746174652E630000000099
:108820008C54002070B504460D4600BF0A480078FD
:1088300000B970BD00BF204603F0F6FD00B1F8E7B7
:10884000204603F005F920460CF06CFE204602F0AD
:108850008DFC00BFEDE70000542D00202DE9F04114
:1088600086B00446884617461D4600BF1CB90E2038
:1088700006B0BDE8F08100BF01AA29466069FFF794
:1088800069F8064600BF304600B1F1E700BF4FF679
:10889000FF70854201D0019808B90520E8E70198EA
:1088A000007808B90820E3E73888F42801DD0720BC
:1088B000DEE700200290039004900590A088ADF8B8
:1088C0000800CDF81480049701208DF80A0002A951
:1088D0002846AEDFCCE7000070B58EB004460E46E9
:1088E0003E4B0FCB09AD0FC500BF14B90E200EB023
:1088F00070BD00BF00BF0EB90E20F8E700BF3068A2
:10890000A061214609A862DF054600BF284600B1E4
:10891000EDE700BF20788DF836000120ADF8340077
:10892000A21C0DA9A8DF054600BF284600B1DEE75E
:1089300000BF202101A8FDF7C0FD0220ADF8040012
:1089400020788DF80600F420ADF808000120ADF87D
:108950000A008DF810009DF8110020F00800083082
:108960008DF811009DF8110020F00400001D8DF815
:10897000110001208DF815008DF81600608804F1B3
:108980000C0201A900F034FE05460DB12846AEE701
:10899000202101A8FDF791FD0320ADF80400207807
:1089A0008DF80600F420ADF808000120ADF80A00AB
:1089B0008DF810009DF8110020F0100010308DF897
:1089C000110001208DF815008DF816008DF81700A4
:1089D0006088221D01A900F00BFE88E73C6F0300B0
:1089E00070B504460D4605B104B970BD2E46208809
:1089F000102804D0502807D057280FD109E021466D
:108A0000304608F0D5FA0AE02146304608F01AFE52
:108A100005E02146304608F0EDFC00E000BF00BF55
:108A200000BFE2E770B5044620460DF063FC054642
:108A3000C5F3400070BD70B5044620460DF05AFCE9
:108A4000054605F0010070BD38B507F0A3F90446EE
:108A500000BF25463DB100BF15A240F25E21284669
:108A6000FDF7D8FB00BF00BF002000906946012041
:108A700006F08AFF044600BF25463DB100BF0CA2A8
:108A80004FF419712846FDF7C5FB00BF00BF6846CB
:108A900007F04AF8044600BF25463DB100BF04A2D6
:108AA0004FF41A712846FDF7B5FB00BF00BF38BD73
:108AB0002E2E5C2E2E5C2E2E5C6D61696E2E630058
:108AC00001460148405C70474C6D030010B50146FB
:108AD000094B585C00BF4FF0A044234600BFD3F8B9
:108AE0001045C44004F001040CB1012000E0002056
:108AF000024682F0010010BD4C6D03007CB50024DD
:108B00000DE00848055D032600200090334602462C
:108B100001460190284605F075FB00BF641C042C3B
:108B2000EFD37CBD4C6D030010B5044604F001008A
:108B300008B100F04BF804F0020008B1FFF7DEFFC7
:108B400010BD000010B502460949885C00BF4FF017
:108B5000A0442146D1F80435012484409C43C1F847
:108B60000845012484401C40C1F80C4500BF10BDDD
:108B7000486D030010B504460249085D012105F067
:108B8000E6FB10BD486D030010B504460249085DC0
:108B9000002105F0DCFB10BD486D030010B5014657
:108BA000094B585C00BF4FF0A044234600BFD3F8E8
:108BB0000445C44004F001040CB1012000E0002091
:108BC000024682F0010010BD486D03007CB5002410
:108BD0000CE00948055D0020009003460122114683
:108BE0000190284605F00EFB00BF641C042CF0D356
:108BF00000F004F87CBD0000486D030010B50024AF
:108C000003E02046FFF7B6FF641C042CF9D310BD27
:108C100010B5002403E02046FFF7B6FF641C042CC7
:108C2000F9D310BD02464FF0FF30002106E0054B9E
:108C30005B5C934201D1084602E0491C0429F6D34B
:108C400000BF70474C6D030070B505460C4600260A
:108C50000648056014B120460CF018FF044800686F
:108C600010B9FEF727F90646304670BD102D0020DA
:108C7000142D002010B5002000F022FB044600BF98
:108C80001CB1062C01D0204610BD00BF012000F011
:108C900017FB044600BF1CB1062C01D02046F3E7A9
:108CA00000BF0020F0E700002DE9F04106460F4626
:108CB0004FF0000800243046FFF7B4FF0446042CB0
:108CC0003ED20FB3012F02D0022F38D130E004EB97
:108CD0004400214911F8008004EB44000844407826
:108CE00050B11E4A4FF480411D480068FEF70CFC4D
:108CF00005460DB91948067004EB440016490844AE
:108D00008078184908551AE015480068FEF72BFCD2
:108D10001448005D04EB44010F4A114489788842ED
:108D200005D104EB44001146084490F8028006E0A7
:108D300004EB44000849084490F8018000BF00BFDC
:108D4000B8F1000F06D00848006818B1404606493F
:108D500009688847BDE8F08124540020082D0020D0
:108D6000586D0300092D0020E02C002010B50446AA
:108D7000042C03D22046FFF7A9FE10BD0020FCE71B
:108D800070B50546042D06D0072D18D00A2D2FD119
:108D90000CF090FB2DE013211748008876DF044685
:108DA000082C0BD000BF26463EB100BF13A240F2F4
:108DB0009B213046FDF72EFA00BF00BF19E00E4898
:108DC00000884FF6FF71884211D11048FEF795FFD9
:108DD0000446082C0BD000BF26463EB100BF07A2B8
:108DE00040F2A5213046FDF715FA00BF00BF00E0B4
:108DF00000BF00BF70BD00004C2C00202E2E5C2E4A
:108E00002E5C2E2E5C6D61696E2E63005C3300203B
:108E100030B503460020042B23D2012A07D10129B3
:108E200003D103F10E04E4B200E00024224679B13C
:108E3000012902D0022911D104E003EB43040A4DB9
:108E40002A550DE003EB4304074D2C44627007E004
:108E500003EB4304044D2C44A27001E0072000BF43
:108E600000E0072030BD00002454002070B5044607
:108E700000250548007800F0010018B1204600F0F8
:108E80005BF80546284670BD942C00202DE9F04182
:108E900005460F4600241F4805601F48076005F07F
:108EA000020000B3002606E0012211463046FFF71B
:108EB000AFFF0446761C042E01D2002CF4D034B946
:108EC00040F2333204211548FEF7D6F8044614B9AF
:108ED000FEF7BCF804462CB9114A00211148FEF7F0
:108EE00079FA044600BF05F0010080B10120FFF7C8
:108EF0001BFE2CB90C4A00210C48FEF76BFA044605
:108F00002CB90B4A01210B48FEF764FA04462046AF
:108F1000BDE8F081942C0020E02C00205C6D030063
:108F200029940200586D0300C1C50200506D030072
:108F30002B700200546D03002DE9F0470446002613
:108F40000025DA48007820B10020D849087003F0E5
:108F500023FB182C7ED2DFE804F00C16174A7EB2F1
:108F6000F6F4F3F2F1F0EFEEEDECEBEAE9E8E7E628
:108F7000E5E403F011FBCE480068FEF7F4FA06467C
:108F8000CC4804708DE100BF0020FFF707FE58B108
:108F90000020FFF7EFFD022C02D14FF4E16001E069
:108FA0004FF47A60054609E00020FFF7EDFD022C42
:108FB00001D1C82001E04FF4C8700546BD480470D7
:108FC0004FF40040A5FB00104FF47A73CF1840F126
:108FD00000015A0000233846FDF712FA81460022AC
:108FE0004946B3480068FEF78FFA064659E100206B
:108FF000FFF7D4FD58B10020FFF7BCFD032C02D1D0
:109000004FF4487001E04FF47A60054609E0002013
:10901000FFF7BAFD032C01D1C82001E04FF4C8705E
:109020000546A44804704FF40040A5FB00104FF41F
:109030007A728F1840F10001520000233846FDF784
:10904000DFF981460022494699480068FEF75CFA3C
:10905000064626E124E10020FFF7A0FD58B10020DC
:10906000FFF788FD042C02D14FF47A6001E04FF441
:109070007A6005460AE00020FFF786FD042C02D145
:109080004FF4C87001E04FF4C87005468948047079
:109090004FF40040A5FB00104FF47A73CF1840F155
:1090A00000015A0000233846FDF7AAF98146002244
:1090B00049467F480068FEF727FA0646F1E000209F
:1090C000FFF76CFD50B10020FFF754FD052C01D1D6
:1090D000C82001E04FF47A60054609E00020FFF760
:1090E00053FD052C01D1C82001E04FF4C87005469E
:1090F000704804704FF40040A5FB00204FF47A73D1
:10910000D71840F100015A0000233846FDF778F9DE
:1091100081460022494666480068FEF7F5F9064692
:10912000BFE0B8E0B6E0AAE0A1E098E092E05FE03E
:109130005DE05BE059E057E051E042E033E024E0DD
:1091400015E00EE0FFE70020FFF7FCFC5948047033
:10915000002240F2666156480068FEF7D5F90646DF
:109160009FE00020FFF710FD5248047099E00120B5
:109170004E490870FFF7E6FC002240F266614C4859
:109180000068FEF7C1F906468BE0012047490870E8
:10919000FFF7D8FC00224FF4005145480068FEF765
:1091A000B3F906467DE0012040490870FFF7CAFC8C
:1091B000002240F266613E480068FEF7A5F90646C7
:1091C0006FE0012039490870FFF7BCFC00224FF422
:1091D000005137480068FEF797F9064661E0FFF74F
:1091E00017FD344804705CE000BF00BF00BF00BF43
:1091F00031480068FEF7B7F90646C4F1110515B30A
:109200000EBB012D18D9A8B2C82148434FF4004124
:1092100080FB01104FF47A728F1840F10001520068
:1092200000233846FDF7ECF88146002249462248E3
:109230000068FEF769F906460220FFF7A5FC012049
:109240001E49087005E00220FFF794FC00201B492E
:10925000087026E003F0A0F91648047021E003F03E
:109260009BF90020FFF790FC1248047019E003F00E
:1092700093F90120FFF788FC0E48047011E003F019
:109280008BF90020FFF780FC0120FFF77DFC0948E7
:10929000047006E000BFFFF7BBFC0648047000E066
:1092A00000BF00BF3046BDE8F0870000912C0020D1
:1092B000506D0300902C0020546D0300982C00206A
:1092C00010B50446012120460DF0B3F910BD000091
:1092D0002DE9FC4704460D461646A71C4FF0010831
:1092E0000020019001A8FEF7BFF9304840682860CF
:1092F0002E4840682D498968411A2D480068401C55
:10930000A0EB010915E001212A4804F053F903F00C
:109310000FFC82465146274804F04CF92348406828
:1093200022498968411A22480068401CA0EB0109C3
:1093300000BF4F45E7D8B8F1000F30D000210091B1
:1093400076B1009921F00301491C0091009921F0A8
:109350000401091D0091009964F3891100910DE049
:10936000009921F00301891C0091009921F004016A
:10937000091D0091009964F39F5100910B494968C0
:109380000B4A12681140094A0C3202EB8100009925
:1093900001600649496839440C3A516000BF9DF8A4
:1093A0000400FEF767F94046BDE8FC87B45C002086
:1093B000542F0020D060002070B504460D460A2DC1
:1093C00003D10D212046FFF7F7FFA168481CA060DC
:1093D00020684554D4E90110884202D3204604F0A5
:1093E00060FB70BD0448806803494968884201D128
:1093F000012070470020FCE7B45C002002460021F9
:1094000008E0074B1B6803EBC1000378934200D1CF
:109410007047491C034800788142F2DB0020F7E7DF
:10942000682E00206C2E002010B504462078022102
:10943000FFF73AFC10BD0000F8B5054615490320BA
:10944000FFF724FD044600BF26463EB100BF12A22E
:1094500040F231313046FCF7DDFE00BF00BF694607
:109460000020FFF7F1FB044600BF26463EB100BFD7
:1094700009A24FF44D713046FCF7CCFE00BF00BF8F
:109480009DF80000022801D1012000E00020287092
:10949000F8BD0000818D02002E2E5C2E2E5C2E2E3B
:1094A0005C6D61696E2E63007CB50446204602F057
:1094B00015FC054600236A46092108F069FD0528C8
:1094C00005D10122024801782046FEF7E1FD7CBD6E
:1094D000302D00207CB504460E460020019042F657
:1094E000A620ADF8040001208DF8060007480068AA
:1094F00000906A4601A92046A0DF05462DB9012249
:10950000034801782046FEF7C3FD7CBDD86D0300FB
:10951000312D002001468879012809D108790128D8
:1095200006D1488842F60212904201D101207047CC
:109530000020FCE74FF0FF31054A42F820100828D0
:1095400004DBFF23A0F108015032535470470000A0
:10955000F45700200146024850F8210070470000EF
:10956000F45700202DE9F04F03460C464FF0FF3929
:109570000AB1002000E0082084460AB1082000E07B
:109580000C208046614624E0154850F82100401C1C
:10959000F0B91D460846274616464FFA80FBDFF80D
:1095A00040A00AF1300A0AF805B0DFF834A04AF802
:1095B00020704EB94FFA85FBA0F1080ADFF820E0D1
:1095C0000EF1500E0EF80AB000BF4FFA81F902E01A
:1095D000491C4145D8D300BF4846BDE8F08F000084
:1095E000F457002001460148405670472458002097
:1095F00070B590B006460C461546A07818B9012003
:109600008DF80E0002E0A0788DF80E002088ADF8ED
:109610000C0000200290607C02A90BF085FEA07C6B
:109620000DF109010BF080FEE07B08B1012000E0A4
:1096300000209DF80A1060F3C3018DF80A10207C09
:1096400008B1012000E000209DF80A1060F3041129
:109650008DF80A10207B08B1012000E000209DF861
:109660000A1060F300018DF80A10207D08B1022075
:1096700000E001209DF80A1060F342018DF80A1005
:109680001C2109A8FCF719FF607BC0F3001018B972
:10969000607BC0F34010F8B100200090E07C0DF139
:1096A00001010BF041FE00BF9DF8000020F00F000B
:1096B000401C8DF800009DF8000020F0F0001030F4
:1096C0008DF8000000BF9DF8020020F00600801C0D
:1096D0008DF80200CDF838D0607B8DF82400A07B97
:1096E0008DF82500142104A8FCF7E7FE03A80490D8
:1096F00002A80590A088ADF81C00A06820B1E08801
:10970000ADF81800A0680890A069002849D0002092
:109710000190A0690088ADF82C00A0694088ADF8E0
:109720002E00A06940680A9001A80D90A169087BED
:1097300001A90BF0F9FDA169487B0DF105010BF0C2
:10974000F3FDA069807A08B1012000E000209DF8B7
:10975000061060F3C3018DF80610A069C07A08B145
:10976000012000E000209DF8061060F304118DF840
:109770000610A069007A08B1012000E000209DF8E1
:10978000061060F300018DF80610A069807B08B117
:10979000022000E001209DF8061060F342018DF8E0
:1097A0000610E06908B1E0690C902B4604AA09A9EB
:1097B0003046AADF10B070BD2DE9F04104460D46D9
:1097C0004FF6FF76304684420AD14FF48071284626
:1097D00003F08DFE86B2B6F5807F10D126460EE0EE
:1097E000FF2C0CDC2146284603F06AFE80F00107BE
:1097F0000FB1204601E04FF6FF70064600BF30462D
:10980000BDE8F08170B505460DB9094C01E0084C82
:10981000083409E0204602F092FE064606B904E04C
:1098200028467168884700BFF4E700BF70BD00009C
:10983000E857002010B504462CB9012006494870AD
:109840000020FFF7DFFF012C04D1012002498870BE
:10985000FFF7D8FF10BD0000E05700202DE9F047CA
:10986000024613468C46D3E90245DCE90267B6EBB3
:10987000040877EB050002D30120BDE8F087002043
:10988000FBE701468878012805D191F820000128DE
:1098900001D100207047886A042802D0486A042851
:1098A00001D10020F6E70120F4E700007CB500209C
:1098B0000090019001208DF800006946022067DFCA
:1098C000044600BF25463DB100BF04A240F2AF31BF
:1098D0002846FCF79FFC00BF00BF7CBD2E2E5C2EEF
:1098E0002E5C2E2E5C6D61696E2E630033B58BB0DD
:1098F0000546002000900C9878B100240BE021462A
:109900000CA803F024FE28B1009A501C009001A876
:1099100020F81240641C142CF1D32C2269462846EE
:10992000FCF7B2FD0DB030BD01460888062808DB03
:109930000888B0F5486F06DD08884FF6FF72904240
:1099400001D0072070474888062808DB4888B0F512
:10995000486F06DD48884FF6FF72904201D007201D
:10996000F0E708884FF6FF72904208D0488890428E
:1099700005D008884A88904201DD0720E2E70020F0
:10998000E0E72DE9F04107460D4614469846208849
:10999000801D404502D90C20BDE8F0813846FFF714
:1099A000C3FF064600BF304600B1F5E700BF052003
:1099B000218868542088401C208012202188685407
:1099C0002088401C20802288511938880CF098FC8F
:1099D0002188084420802288511978880CF090FC56
:1099E0002188084420800020D6E7000010B50446F6
:1099F00000BF04A24FF4E2712046FCF70BFC00BF4D
:109A000010BD00002E2E5C2E2E5C2E2E5C6D61692A
:109A10006E2E630030B587B01C216846FCF74DFD03
:109A2000002000904FF4A03001904FF4F0200290FD
:109A300003208DF80C000020ADF80E008DF810000A
:109A40000A4805900A4806906846FEF735FA04462B
:109A500000BF25463DB100BF06A240F2DB112846FB
:109A6000FCF7D8FB00BF00BF07B030BDD10E03002C
:109A7000ED9902002E2E5C2E2E5C2E2E5C6D6169FF
:109A80006E2E6300F8B505460C46607A88B9207AD8
:109A900010B91048476801E00E4887682A463946E1
:109AA0006068FDF731FD064616B130460BF0F0F860
:109AB0000EE0002020720748406948B101208DF86F
:109AC0000000ADF80250034841696846884700BF6E
:109AD000F8BD000064540020F0B585B004460D4682
:109AE00017461E4614220B496846FCF7CDFCADF81C
:109AF00002408DF80850ADF80A708DF80C60002215
:109B0000054801782046FEF7C3FA684600F060FD7C
:109B100005B0F0BDE86E03001D2E002010B586B024
:109B20000446208807F06CFF00BB2088FEF71CFA73
:109B300030B92088012241F2060100F01EFB15E039
:109B4000208800220A490978FEF7A2FA03208DF83E
:109B500004002088ADF8060000208DF80C000021DC
:109B60008DF80D1001A800F033FD00BF06B010BD48
:109B70001D2E002070B504460D4629462046FDF7EF
:109B800031F870BD10B5012200210846FFF740F9F9
:109B9000044600BF1CB1072C01D0204610BD00BFF9
:109BA000072202210120FFF733F9044600BF1CB150
:109BB000072C01D02046F1E700BF0422022100203B
:109BC000FFF726F9044600BF1CB1072C01D0204640
:109BD000E4E700BF0020E1E72DE9FF4105460C4620
:109BE000002002900390ADF80840ADF80A400090C4
:109BF00001906A4602A9284690DF0646002E32D020
:109C0000304606F019FA074619491A4A891AC9084E
:109C1000012242EA01403B462A46174905F09CFAD8
:109C2000BDF8000010B9BDF8020068B1BDF80230FF
:109C3000BDF800200E490F4FC91BC908012747EA8C
:109C400001400EA105F088FABDF8040058B1BDF836
:109C500004200749074BC91AC908012343EA0140F8
:109C6000164905F06DFA304604B0BDE8F0810000F9
:109C7000D88E0300D88E0300B873030054686520A3
:109C80007265717565737465642054582F5258203D
:109C90007061636B6574206C656E677468206973AE
:109CA00020746F6F206C6F6E672062792025752F8E
:109CB0002575206F63746574732E000004740300AF
:109CC0002DE9F04105460F460F4C0121204603F0D7
:109CD000A8FC064600BF00BF00BF00BFBFF35F8FF8
:109CE00000BF00BF00BF0EB9012000E0002040B15E
:109CF000284602F069FE08B1BDE8F081024805F08F
:109D000039FC00BFF8E70000282D002070B50D4990
:109D10000D4A891AC908032242EA01400BA105F045
:109D200005FA09F00FFC044600BF25463DB100BF0F
:109D30000AA240F265312846FCF76CFA00BF00BF6A
:109D400070BD0000B08F0300D88E030045726173B0
:109D50006520626F6E647321000000002E2E5C2E61
:109D60002E5C2E2E5C6D61696E2E630070B506460A
:109D70000D4616B14FF4064070BD287920B1012878
:109D800009D0022815D111E00220287128460AF0D6
:109D90002DF9044610E0284600F0A8FE044648F2DB
:109DA0000960844201D141F61D5405E041F61D547D
:109DB00002E048F20E6400BF00BF2046DCE700006E
:109DC0002DE9F0418046002414E01248006800EBC1
:109DD000C405287806F0CEFA07466878012800D135
:109DE00000E00020784080F001062878314600F03D
:109DF0001DFB641C084800788442E6DB0748D0E974
:109E00000010002359405840014301D00CF00CF9D8
:109E1000BDE8F081682E00206C2E0020982E0020D6
:109E200070B5044620793D2802D141F23D0001E0A1
:109E30004FF48850054620880022294602F014FD80
:109E400070BD000010B50021034803F0EAFB044692
:109E500084F3100010BD0000D060002070B50546EE
:109E60000C464FF4803000FA04F1284600F0BEFAA8
:109E700070BD70B505460C464FF4A07000EB840031
:109E800086B23146284600F049FB70BD2DE9F04707
:109E900004460D4616461F464FF4803000FA05F87A
:109EA0004FF4A07000EB85001FFA80F926F07F4682
:109EB0004146206805F04AFD4146206805F037FD1F
:109EC0004946206805F029FD32462946206805F0FC
:109ED00014FD4146206805F030FD1FB14146206861
:109EE00005F03AFDBDE8F08710B50446206805F09E
:109EF00009FD10BD2DE9F04704460D46174660796F
:109F0000324941F820706079314901EBC000007995
:109F100068B108262F49304A891AC908022242EA44
:109F200001402EA105F002F93046BDE8F0872988EE
:109F30002068C0F8081500BF94F90420AB781046DB
:109F40001946002808DB4FEA417C4FEA1C68DFF81D
:109F5000B0C00CF800800BE04FEA417C4FEA1C696E
:109F6000DFF8A0C000F00F08A8F104080CF8089072
:109F700000BF00BF94F90410084600280DDB00BFA5
:109F800000BF00F01F0301229A4043099B0003F128
:109F9000E023C3F8002100BF00BF00BF00BF0120C5
:109FA00061790B4A02EBC10108716079114641F8F1
:109FB000304000260749084A891AC908032242EAA4
:109FC000014011A105F0B2F83046AEE7E02E0020C6
:109FD000E42E0020808F0300D88E030052544320CB
:109FE000696E7374616E636520616C72656164791A
:109FF00020696E697469616C697A65642E0000007D
:10A0000000E400E018ED00E05254433A20696E6924
:10A010007469616C697A65642E00000010B50146B0
:10A0200091F90400002807DB00F01F0301229A4089
:10A03000024B440943F8242000BF10BD00E200E0B9
:10A0400070B505460C4622460221284600F0DAF992
:10A0500070BD10B504464FF48271204600F05EFAE0
:10A0600010BD10B504460021206805F07DFC10BD30
:10A0700010B504460421206805F076FC10BD2DE9DA
:10A08000F84F04468846154699464FF4803000FA4A
:10A0900008FA4FF4A07000EB88001FFA80FB25F04F
:10A0A0007F455146204600F0A1F9206805F02AFCC2
:10A0B00006464146206805F015FC009032464146B0
:10A0C000206805F01AFC5946206805F026FC314648
:10A0D00000980BF0DDFE012806D1102006F05EF896
:10A0E0005946206805F019FC206805F00BFC06466F
:10A0F000314628460BF0CCFE07465146206805F055
:10A100001CFC012F0FD16A1C4146206805F0F5FBAD
:10A11000102006F043F8206805F0F4FBB04225D08B
:10A120000D20BDE8F88F2A464146206805F0E5FB82
:10A13000206805F0E7FB0646681E31460BF0A8FED6
:10A1400007466FF07F40A0EB0900B84201D20D2016
:10A15000E7E75FB96A1C4146206805F0CEFB20683E
:10A1600005F0D0FBB04201D00D20DAE701225146C4
:10A17000204600F047F90020D3E770B506460C46AC
:10A1800015462B46224600213046FFF7A5FC70BD40
:10A1900010B510480068407E60B106210120FEF72E
:10A1A00045F9044624B10B480068416903208847FB
:10A1B000002010BD012007490968087601210846E2
:10A1C000FEF734F904461CB10020024909680876FC
:10A1D0002046EEE79C2F00202DE9F84305460E4669
:10A1E0001746984669461048006803F022F904466D
:10A1F00014B90420BDE8F8831C212046FCF75DF962
:10A20000012020712560C4F8088008480068B6FB6A
:10A21000F0F0E060676169460348006803F033F9D5
:10A2200009F0E4FD0020E5E7AC710300A071030034
:10A2300010B50446D4E90321501828DF10BD027878
:10A24000072A38D2DFE802F037040712222B340045
:10A2500000220A7030E001220A7003898B81838812
:10A26000CB81C2688A6000230B7425E002220A7049
:10A2700003898B818388CB81C2688A60827D062AAC
:10A2800001D1012300E000230B7415E003220A70C2
:10A29000C3888B810389CB81C2688A600CE0042269
:10A2A0000A70C3888B810023CB8100228A6003E07F
:10A2B00005220A7000E000BF00BF704770B5054678
:10A2C000002409E0064850F8240020B1044850F862
:10A2D000241028468847641C042CF3D370BD00006A
:10A2E0007C59002030B587B004460D462068806850
:10A2F00008B907B030BD182101A8FCF7DEF80295B7
:10A30000A0680690207910B1012815D109E001203C
:10A310008DF8040020690390E0680490606905905E
:10A320000BE002208DF804000749E0680968484303
:10A3300003906069059000E000BF00BF206881685D
:10A3400001A8884700BFD4E7A0710300F0B585B02D
:10A3500005460C461646002C3ED0112C3CD0082C4D
:10A360003AD00D2C24D11D491D4A891AC908022250
:10A3700042EA01402A461B4904F0E2FE2A46042133
:10A38000684602F027FE2EB1307800F0010008B1D7
:10A39000012000E002208DF8080000218DF80C104B
:10A3A00041F20111ADF80A10684600F025F913E0FA
:10A3B000204605F041FE07460849094A891AC9089E
:10A3C000012242EA01402B463A46074904F0C4FE06
:10A3D000214628460AF0CAFC05B0F0BD208F0300D4
:10A3E000D88E0300108403002085030070B5044656
:10A3F0000D462946206805F09AFA2946206805F09E
:10A40000A5FA70BD70B504460E4615463146206863
:10A4100005F093FA1DB13146206805F09DFA70BD34
:10A4200010B50446204600F0E7F810BDF8B5054623
:10A430000C4628460BF03EFB05286AD2DFE800F008
:10A4400003212A393F00DCB1012128460BF042FBF1
:10A45000002000906846FDF707F92A4601260027EC
:10A4600030463946FBF7FDFF2B4AD2E9003218434C
:10A470001143294A03C29DF80000FDF7FBF800BF15
:10A4800047E00CB1022000E00020014628460BF016
:10A4900021FB3EE044B1032128460BF01BFB0121C8
:10A4A00028460CF025F803E0012128460BF012FBAA
:10A4B0002FE01CB9042128460BF00CFB29E024B145
:10A4C000032128460BF006FB22E0002128460BF072
:10A4D00001FB002128460CF00BF800200090684694
:10A4E000FDF7C2F82A460126002730463946FBF719
:10A4F000B8FF0A46C143D043074B0CCB114018406C
:10A50000054AC2E900109DF80000FDF7B3F800BF4E
:10A5100000BF00BFF8BD0000982E002070B50546B2
:10A520000C462868015929B12146286805F0F5F93B
:10A53000012070BD0020FCE770B50446608801F082
:10A54000CDFBA080002505E0044850F825102046EA
:10A5500088476D1C002DF7D070BD0000202D002015
:10A5600070B50446A08801F0E9FA6080002505E096
:10A57000044850F82510204688476D1C002DF7D060
:10A5800070BD0000342D002070B50546002405E0A4
:10A59000044850F8241028468847641C022CF7D33E
:10A5A00070BD0000186E030070B50546002405E07C
:10A5B000054850F8241028468847641C0348007852
:10A5C0008442F5DB70BD000094570020622D00200E
:10A5D00070B50446608801F081FBA080002505E08D
:10A5E000044850F82510204688476D1C002DF7D0F0
:10A5F00070BD0000A86E030070B50546002405E09C
:10A60000044850F8241028468847641C002CF7D0D2
:10A6100070BD0000346F030010B586B004461421ED
:10A6200001A8FBF74AFFA08900F07AFAADF808000C
:10A63000207806285ED2DFE800F05D0304052E4A8C
:10A6400000BF00BFA08900F070FA18B9E08909F0D6
:10A65000EEFDF8B1E08909F0E7FD8DF80C002078F7
:10A66000032801D1012100E000218DF80D10A1681F
:10A670000491606830B909208DF8040001218DF83B
:10A68000141004E00A208DF804006168059101A807
:10A6900007F0CAFB2FE0A08900F047FAB0B1E089CB
:10A6A000A0B9606838B90B208DF80400BDF8080027
:10A6B00007F00AFE04E00C208DF8040060680390A7
:10A6C00001201149087001A807F0AEFB13E0606893
:10A6D00018B914208DF8040004E015208DF804004A
:10A6E000606803904FF6FF70ADF8080001A807F00E
:10A6F0009BFB00E000BF00BF0348007808B107F0F3
:10A7000029FD06B010BD0000412D002038B50546DA
:10A710001048007810B948F2016038BD4FF6FF705C
:10A72000854202D148F20360F7E7684609F03EFA35
:10A73000044614B948F20760EFE7052020700120B5
:10A740002071E580684609F041FA09F043FB0020DA
:10A75000E3E70000F82E002038B50E48007810B965
:10A7600048F2016038BD684609F020FA044614B981
:10A7700048F20760F6E706202070684609F026FADE
:10A780000548007810B101200349087309F022FB45
:10A790000020E7E7F82E0020505A002070B586B060
:10A7A000142101A8FBF789FE3048007828B101A8E0
:10A7B000FFF784FD002006B070BD2C48001D02F09C
:10A7C000F2FE08B10020F6E700F05EFA06460EB190
:10A7D0003046F0E709F026FA07F05AF8054625B1A9
:10A7E000022D03D0062D12D107E000BF00201F4923
:10A7F0000870486048F20A60DDE701201B490870D4
:10A800000020486001A8FFF759FD0020D3E700BFF2
:10A8100000BF684609F0CAF9044614B948F2076057
:10A82000C9E7012020700C2D16D2DFE805F01506CF
:10A83000150715111512150A0E0B00BF0020207107
:10A840000BE000BF0320207107E00220207104E02C
:10A8500000BF0120207100E000BF00BF684609F082
:10A86000B5F909F0B7FA0020A5E70000F82E00209E
:10A8700038B5044614B948F2046038BD694620462C
:10A8800009F0D2FB08B3BDF8000000EB80001149CD
:10A8900001EB8000C068A8B1A07A98B1BDF80000B3
:10A8A00000EB800001EB8000C068401EBDF8001086
:10A8B00001EB8101074A02EB8101C8600020A07210
:10A8C000002504E048F2056501E048F209652846E4
:10A8D000D3E70000285A00207FB514461D462B46BA
:10A8E000224601A9684609F037FB04B070BD37B5B0
:10A8F0000C4615462B4622466946002009F02CFBE3
:10A900003EBD37B50C4615462B462246002168460B
:10A9100009F022FB3EBD024602B111B948F20460C3
:10A920007047106808600020FAE70000F8B5044698
:10A930000D4604B115B948F20460F8BD69462046D9
:10A9400009F072FBA0B16668BDF8001001EB81014F
:10A95000094A02EB810101F10C00012102F02AFEFB
:10A960002E6060680C3068600120A0720020E4E76F
:10A9700048F20960E1E70000285A002070B504465B
:10A980000D4614B948F2046070BD03230022294625
:10A9900020460CF047F8F7E770B504460D46022351
:10A9A0000022294620460CF03DF870BD70B50546E2
:10A9B00009480068042802D148F20B6409E00748FE
:10A9C0000549096840F821500121034802F0F2FDD1
:10A9D0000024204670BD0000042F00207C59002078
:10A9E0002DE9F84304464FF4806800262B48007890
:10A9F00018B948F20160BDE8F88314B948F2046060
:10AA0000F9E712212046FBF758FD0320208000259E
:10AA10003FE005EB8500224901EB8000008905EB52
:10AA200085011F4A02EB81014989084487B205EB81
:10AA3000850102EB8101486806F0A6FE032802D1D9
:10AA40002088401E2080608805EB8501144A02EBB7
:10AA50008101C96808446080208905EB850102EB0B
:10AA60008101498908442081608938446081C7F5A3
:10AA7000806086B2A089B04200DAA68104F110009D
:10AA8000831EA21D211D0090284609F023FC681C8E
:10AA900085B2022DBDDB0020ADE70000F82E0020BE
:10AAA000285A002070B504460D462A46002120464B
:10AAB00000F009F8A068401CA06070BD01468A68DB
:10AAC000C868801A704710B583680B448488234097
:10AAD0000468E35C137010BDC26883881A40036881
:10AAE0009954C268521CC260704700003EB50446CB
:10AAF0000A4B6A460021A01D09F02EFA054635B919
:10AB0000064A9188019809F009FB054603E00348CD
:10AB100000210160416028463EBD0000142F002046
:10AB20000146A1F5404080B270470146B1F5404F63
:10AB300005DB4FF6FE70814201DC012070470020EA
:10AB4000FCE710B504462078182802D1FDF77CFAFE
:10AB5000207010BD10B504462078182802D1FDF7EA
:10AB600073FA207010BD70B505460E46144624B128
:10AB70003146284602F0FAFC03E03146284602F04E
:10AB800090FC70BD30B504461088C01C984201D9B5
:10AB90000C2030BD0220158848551088401C1080BC
:10ABA0000120158848551088401C108015884C5588
:10ABB0001088401C10800020EBE770B504460D465D
:10ABC00040F21442115B0122D4F81004FCF7AEFFEE
:10ABD000064606B1357004F13C0204F5826104F1C9
:10ABE000540072DF70BD00002DE9F04106460C46AE
:10ABF00015460027112C01D1012700E0002765B17F
:10AC00003A460A4801783046FDF742FA00220848E1
:10AC100001783046FDF73CFA05E03A4604480178F1
:10AC20003046FDF735FABDE8F08100003B2E0020EC
:10AC3000382E002010B54FF4405400F009F80349B5
:10AC4000086108460069001BC86010BDA42F0020E1
:10AC500010B540F6F8700068401C18B94FF010208D
:10AC6000406902E040F6F870006803464FF08050FB
:10AC700001694269581C08B1184601E002FB01F065
:10AC80000446204610BD000010B5FFF7D3FF002298
:10AC90000249034803F0C4F810BD0000B07103007E
:10ACA000A42F0020F7B50D4617460DB90020FEBDB4
:10ACB0000026009868B1002409E02146684602F0A9
:10ACC00046FC18B1A0B23946A847761C641C142C67
:10ACD000F3D33046EBE710B50446606808F0D0FFC8
:10ACE00010BD00003EB500BF9DF8000020F00F0031
:10ACF000401C00909DF8000020F0F0001030009003
:10AD000000BF0C2217A168467CDF044600BF254621
:10AD10003DB100BF17A24FF486712846FBF77AFABF
:10AD200000BF00BF0020019002901820ADF8040081
:10AD3000ADF806000020ADF808004FF4C870ADF87B
:10AD40000A0001A87ADF044600BF25463DB100BFD6
:10AD500008A24FF48B712846FBF75CFA00BF00BFD6
:10AD60003EBD0000536565724C696B654A617A7A35
:10AD7000000000002E2E5C2E2E5C2E2E5C6D616974
:10AD80006E2E630070B505460C4660880D49098833
:10AD9000884215D1208840F67721884210D1A088BA
:10ADA000C01E094908800949094A891AC9080322AD
:10ADB00042EA014004490B880A8806A104F0CCF954
:10ADC00070BD00004C2C00204E2C0020B08F0300E2
:10ADD000D88E030044617461206C656E2069732015
:10ADE00073657420746F20307825582825642900F5
:10ADF00070B51149114802F0BCFC044600BF25465D
:10AE00003DB100BF0EA240F283212846FBF702FAB3
:10AE100000BF00BFF721094802F09CFC044600BFB8
:10AE200025463DB100BF06A240F286212846FBF729
:10AE3000F1F900BF00BF70BD85AD02003C330020BA
:10AE40002E2E5C2E2E5C2E2E5C6D61696E2E6300A4
:10AE500070B5054615B14FF4064070BD1848007B2B
:10AE600018B100201649087301E000F0DFF814481B
:10AE7000007808281DD2DFE800F01C04080C101C24
:10AE8000141800F03FF8044616E000F0BDF8044640
:10AE900012E000F099F804460EE000F047F804468E
:10AEA0000AE000F035F9044606E000F043F90446F4
:10AEB00002E048F20E6400BF00BF2046CDE700006C
:10AEC000505A00200D480089401C0C490881002080
:10AED0004880087300BF0DE000EB8001084A12F8BB
:10AEE000211009B9012200E0002204490A310A5464
:10AEF000411C88B20228EFDB70470000505A002046
:10AF0000285A002010B5084800F036F840B9002053
:10AF10000549891E08704880486041F61D5010BDE3
:10AF200000F072F8FBE70000525A002070B50F489D
:10AF3000458805EB85000E4901EB8000C06878B9B3
:10AF400004200A49087005EB8500094A02EB8000DD
:10AF5000002301224168074802F0AAFE044602E0ED
:10AF600000F090F80446204670BD0000505A0020C2
:10AF7000285A0020A42F002010B5014600220020EE
:10AF800018E00F4B1B5C9BB100240D4B1C5400EBD5
:10AF900080030C4C04EB8303DB684BB900EB8003AC
:10AFA00004EB83031B7C012B02D10880012203E008
:10AFB000431C98B20228E4DB00BF104610BD00001D
:10AFC0005A5A0020285A0020F8B50C4844680C480A
:10AFD00000680B49898800EB81056088C01C86B237
:10AFE0000320064908700020B30000900846294657
:10AFF0004268044802F0D4FFF8BD0000505A002017
:10B000000C2F0020A42F002010B507494888091DE7
:10B0100009F048F818B1FFF7D7FF044602E0FFF740
:10B0200085FF0446204610BD505A002010B5144834
:10B030000078082820D2DFE800F0041F1F0A10164D
:10B04000171BFFF73FFF01200D49087015E000F0C6
:10B050007DF802200A4908700FE000F029F8062068
:10B060000749087009E000BF07200549087004E09F
:10B0700001200349087000E000BF00BF10BD0000C0
:10B08000505A002010B505200649087002200649D4
:10B0900088800846002301220168044802F008FE67
:10B0A00010BD0000505A00200C2F0020A42F0020BB
:10B0B000144908681449498801EB8101134A02EBDD
:10B0C000810149680F4A11600F49498801EB8101EC
:10B0D0000E4A02EB810148600A4989880A4A52886F
:10B0E00002EB8202094B03EB820211810221054A25
:10B0F00091800021044A528802EB820203EB820213
:10B10000117470470C2F0020505A0020285A00203C
:10B1100010B5062005490870498801EB8101044AF1
:10B1200002EB8101486806F091FB10BD505A0020E7
:10B13000285A002010B507200349087000204860F5
:10B1400006F094FB10BD0000505A0020054A5068DC
:10B150004288D21C91B2044A92880A44024B9A80D7
:10B1600070470000505A00200C2F00202DE9F041BC
:10B1700086B00446A688208850282ED004DC3528C6
:10B1800036D0362808D189E0522802D05428F9D187
:10B1900003E0304601F0AAFBB9E01422634901A89C
:10B1A000FBF772F9ADF80660304600F097FDADF898
:10B1B0000800BDF8080000F03FFA00225C48017862
:10B1C0003046FCF765FF00225A4801783046FCF70C
:10B1D0005FFF01A8FFF7B0F999E0A01DFEF79AF90B
:10B1E00028B10121304601F0E3FB0BF0FDF88EE0C1
:10B1F0000027A68804F10A054F4801783046FCF77D
:10B2000031FF00B983E000224B4801783046FCF75B
:10B210003FFFE088B0F5857F3AD0E08858B1E288FA
:10B220004649474BC91AC908022343EA014045A1D0
:10B2300003F086FF2CE0288801280AD02A883F499D
:10B240003F4BC91AC908022343EA01404CA103F04D
:10B2500077FF688801280BD06A883849384BC91AAB
:10B26000C908022343EA014054A103F069FF0FE03B
:10B27000A98800223046A1DF8046B8F1000F06D130
:10B28000012701225C4801783046FCF701FF00BF2E
:10B290001FB9002130460AF0ADFC38E00027A6882F
:10B2A00004F10A05544801783046FCF7DBFE00B98A
:10B2B0002DE00022504801783046FCF7E9FEE08896
:10B2C00058B1E2881D491E4BC91AC908022343EA36
:10B2D00001401CA103F034FF14E0A88801280BD022
:10B2E000AA881649164BC91AC908022343EA014025
:10B2F00032A103F025FF05E0A87908B1012000E0A4
:10B3000000200746394630460AF074FC00BF00BFF3
:10B3100000BF002239493A480078FCF735FE00BFEB
:10B3200009F0D2FD06B0BDE8F0810000EC6D03002D
:10B330002F2D00202E2D0020312D0020E08E030027
:10B34000D88E0300556E6578706563746564204718
:10B3500041545420737461747573207768696C6507
:10B360002067657474696E67204341522063686189
:10B37000722076616C75653A20307825780000007F
:10B380004D756C7469706C652028256429204341D3
:10B390005220636861726163746572697374696372
:10B3A0007320666F756E642C207573696E672074E8
:10B3B00068652066697273742E000000556E6578AA
:10B3C00070656374656420434152206368617261F3
:10B3D0006374657269737469632076616C75652046
:10B3E0006C656E67746820282564292C2073746F3F
:10B3F000726520302E000000322D00200F770200F1
:10B400002D2D002010B50446207858B9608801F031
:10B410006DFA608809F048FD6088FEF745F80AF08B
:10B42000E3FF00E000BF00BF10BD000010B500F05A
:10B43000B1FDFCF709FE2A490870FCF705FE294911
:10B440000870FCF701FE28490870FCF7FDFD27494C
:10B450000870FCF7F9FD26490870FCF7F5FD254951
:10B460000870FCF7F1FD244908701D480078182881
:10B4700017D01C480078182813D01B4800781828CB
:10B480000FD01A48007818280BD0194800781828CF
:10B4900007D018480078182803D0084600781828E4
:10B4A0000BD11649164A891AC908012242EA0140FD
:10B4B000144903F03BFE032010BD00BF00201249D9
:10B4C000086000BF00BF00BF00BFBFF35F8F00BFB9
:10B4D00000BF00BF00BF01200C4908700020EBE74F
:10B4E0002C2D00202D2D00202E2D00202F2D002072
:10B4F000302D0020312D0020322D0020E08E030061
:10B50000D88E03005C740300282D0020242D002019
:10B510007CB504462078092840D1607A00283DD1C6
:10B52000207A012814D0072802D0082834D12BE033
:10B53000A08800F003FB05464FF6FF70854206D059
:10B540000121284601F034FA2846FDF7ADFF24E03A
:10B55000A0886A46012106F05BFB06469EB9019869
:10B56000007880B1A08800F0E9FA05464FF6FF7038
:10B57000854207D001220B4801782846FCF788FD58
:10B5800009F0A2FC00BF08E007480068012802D1CA
:10B59000054803F0EFFF00E000BF00BF0AF024FF02
:10B5A0007CBD00002E2D0020282D002070B50B48FA
:10B5B000FEF79AFC0A4B0CCB841843F100050949AD
:10B5C00003C9201A75EB010004D24FF08073E41810
:10B5D00045F100052046294670BD0000A02E002040
:10B5E000B02E0020B82E00202DE9F04104468846F8
:10B5F000E0B2FDF703FF0546287804F0BBFE0746DE
:10B600006878012800D100E00020784080F0010631
:10B610004EB10648D0E9001000235940584001437C
:10B6200001D10AF001FDBDE8F0810000982E002054
:10B6300001460120884070471CB50446044903C9EF
:10B64000CDE9000100226946204606F0EFFC1CBD52
:10B65000106E030010B500F0A3FC01200149087032
:10B66000002010BD382D00202DE9FC470546284656
:10B6700000F034FB06460027B8464FF003094FF0B0
:10B68000010A4FF6FF7086420DD06A460821304607
:10B6900006F0BEFA044634B90198871DB0F804805C
:10B6A000D0F8009000BF00BF4B46424639462846BE
:10B6B000B1DF0446042C01D1112422E0082C01D171
:10B6C00000241EE00B2C1CD14FF0000A09F00200F0
:10B6D00010B14FF0010914E017B9B8F1000F04D010
:10B6E0000027B8464FF003090BE00A490A4A891AB5
:10B6F000C908012242EA01402A46084903F020FD18
:10B7000003240B2CD0D0BAF1000F00D10B2420461B
:10B71000BDE8FC87E88E0300D88E03002477030081
:10B720002DE9FF5F8046404600F0D8FA06464FF606
:10B73000FF70864204D143F2020004B0BDE8F09FDE
:10B740004FF001094FF0000A00BF4FF0000A4A46CF
:10B75000511C1FFA81F902AB0821304606F0BAFAF3
:10B760000446002C77D1039D032028602A1DA91DC3
:10B7700040462B68B2DF0446002C4AD16A460821B5
:10B78000304606F045FA04469CB1052C11D02046FF
:10B7900004F052FC07463549354A891AC908012286
:10B7A00042EA014043463A4632A103F0D5FC032069
:10B7B000C3E7052C0BD0A88801998988884206D157
:10B7C000AA880198811DA81DFAF789FE30B132467A
:10B7D0000821304606F006FB044619E008213046F1
:10B7E00006F0F0FA07460FB90B2410E0384604F0D3
:10B7F00023FC83461D491E4A891AC908012242EAD0
:10B8000001405B463246294903F0A6FC032400BFF1
:10B810001FE00C2C02D14FF0010A02E0052C00D1F0
:10B8200000240821304606F0CDFA074687B1384695
:10B8300004F002FC83460D490D4A891AC908012209
:10B8400042EA01405B463246184903F085FC032476
:10B8500000BF03E0FFE7072C00D10C24BAF1000F72
:10B860007FF473AF00BF204667E70000E88E030057
:10B87000D88E03007064625F706565725F64617486
:10B88000615F7074725F67657428292072657475D2
:10B89000726E656420257320666F7220636F6E6E12
:10B8A0005F68616E646C653A20256400A4760300CD
:10B8B00010B50446044800884FF6FF71884201D055
:10B8C00009F00EFB10BD00003A2D0020FEB5044625
:10B8D00002A80190204600F001FA06466A460121BE
:10B8E000304606F095F905460DB10020FEBD0198E1
:10B8F0000078FBE72DE9F04105464FF6FF76164844
:10B90000B3DF04468CB1204604F096FB074613498A
:10B91000134A891AC908012242EA01403A461149EC
:10B9200003F00EFC0320BDE8F08100BF4FF6FF726C
:10B93000094801882846AFDF044643F203008442E9
:10B9400004D105480088401C0349088043F20300E5
:10B950008442EBD02046E6E73C2D0020E88E030031
:10B96000D88E03005876030070B504460D46204675
:10B9700000F01DF8A84201D9022070BDA0884FF642
:10B98000FF71884204D0208810B1A068401C08B91B
:10B990000120F2E70020F0E7024613468B4204D272
:10B9A0001868401C08B1012070470020FCE70146E0
:10B9B0004A8801F10C0000EB8200704710B503F0DB
:10B9C00027FA08B903F01CFE10BD3EB504460D462B
:10B9D00020780221B1EB500F01D000203EBDB4F819
:10B9E0000100ADF80800E0788DF80A00A188ADF8F4
:10B9F0000010A0798DF8020001AA69462846FBF7DD
:10BA0000E9FA032201A902A8FAF769FD08B90120A1
:10BA1000E4E70020E2E7000070B504460D46142C70
:10BA200003DA2046FCF74AFB10B943F2020070BD6E
:10BA300004EB8400054901EB4000D0F802102960B6
:10BA4000C188A980007AA8710020F0E7FC5400208A
:10BA500030B591B005462888102801D011B030BD0E
:10BA60002C22291D06A8FAF70FFD4FF6FF749DF84A
:10BA70001C000321B1EB500F35D006F081FA9DF880
:10BA80001C00400820B1012803D0022828D114E06E
:10BA900000BF09E0049800F1110107A8FBF770F955
:10BAA00010B1BDF8144006E003AA05A9072006F06E
:10BAB00031FA0028EED100BF13E008E00498411CE1
:10BAC00007A8FFF782FF10B1BDF8144006E003AAF3
:10BAD00005A9072006F01EFA0028EFD100BF00E0FC
